No.     Time           Source                Destination           Protocol Length Info                                                            Device Address Endpoint Address Transfer Type
     13 0.000000       host                  3.4.0                 USB      36     GET DESCRIPTOR Request DEVICE                                   4              0x80             0x02

Frame 13: 36 bytes on wire (288 bits), 36 bytes captured (288 bits) on interface \\.\USBPcap3, id 0
USB URB
    [Source: host]
    [Destination: 3.4.0]
    USBPcap pseudoheader length: 28
    IRP ID: 0x0000000000000000
    IRP USBD_STATUS: USBD_STATUS_SUCCESS (0x00000000)
    URB Function: URB_FUNCTION_GET_DESCRIPTOR_FROM_DEVICE (0x000b)
    IRP information: 0x00, Direction: FDO -> PDO
        0000 000. = Reserved: 0x00
        .... ...0 = Direction: FDO -> PDO (0x0)
    URB bus id: 3
    Device address: 4
    Endpoint: 0x80, Direction: IN
    URB transfer type: URB_CONTROL (0x02)
    Packet Data Length: 8
    [Response in: 14]
    Control transfer stage: Setup (0)
Setup Data

0000  1c 00 00 00 00 00 00 00 00 00 00 00 00 00 0b 00   ................
0010  00 03 00 04 00 80 02 08 00 00 00 00 80 06 00 01   ................
0020  00 00 12 00                                       ....

No.     Time           Source                Destination           Protocol Length Info                                                            Device Address Endpoint Address Transfer Type
     14 0.000000       3.4.0                 host                  USB      46     GET DESCRIPTOR Response DEVICE                                  4              0x80             0x02

Frame 14: 46 bytes on wire (368 bits), 46 bytes captured (368 bits) on interface \\.\USBPcap3, id 0
USB URB
    [Source: 3.4.0]
    [Destination: host]
    USBPcap pseudoheader length: 28
    IRP ID: 0x0000000000000000
    IRP USBD_STATUS: USBD_STATUS_SUCCESS (0x00000000)
    URB Function: URB_FUNCTION_CONTROL_TRANSFER (0x0008)
    IRP information: 0x01, Direction: PDO -> FDO
        0000 000. = Reserved: 0x00
        .... ...1 = Direction: PDO -> FDO (0x1)
    URB bus id: 3
    Device address: 4
    Endpoint: 0x80, Direction: IN
    URB transfer type: URB_CONTROL (0x02)
    Packet Data Length: 18
    [Request in: 13]
    [Time from request: 0.000000000 seconds]
    Control transfer stage: Complete (3)
DEVICE DESCRIPTOR
    bLength: 18
    bDescriptorType: 0x01 (DEVICE)
    bcdUSB: 0x0200
    bDeviceClass: Miscellaneous (0xef)
    bDeviceSubClass: 2
    bDeviceProtocol: 1 (Interface Association Descriptor)
    bMaxPacketSize0: 64
    idVendor: Unknown (0x291a)
    idProduct: Unknown (0x3369)
    bcdDevice: 0x0105
    iManufacturer: 1
    iProduct: 2
    iSerialNumber: 3
    bNumConfigurations: 1

0000  1c 00 00 00 00 00 00 00 00 00 00 00 00 00 08 00   ................
0010  01 03 00 04 00 80 02 12 00 00 00 03 12 01 00 02   ................
0020  ef 02 01 40 1a 29 69 33 05 01 01 02 03 01         ...@.)i3......

No.     Time           Source                Destination           Protocol Length Info                                                            Device Address Endpoint Address Transfer Type
     15 0.000000       host                  3.4.0                 USB      36     GET DESCRIPTOR Request CONFIGURATION                            4              0x80             0x02

Frame 15: 36 bytes on wire (288 bits), 36 bytes captured (288 bits) on interface \\.\USBPcap3, id 0
USB URB
    [Source: host]
    [Destination: 3.4.0]
    USBPcap pseudoheader length: 28
    IRP ID: 0x0000000000000000
    IRP USBD_STATUS: USBD_STATUS_SUCCESS (0x00000000)
    URB Function: URB_FUNCTION_GET_DESCRIPTOR_FROM_DEVICE (0x000b)
    IRP information: 0x00, Direction: FDO -> PDO
        0000 000. = Reserved: 0x00
        .... ...0 = Direction: FDO -> PDO (0x0)
    URB bus id: 3
    Device address: 4
    Endpoint: 0x80, Direction: IN
    URB transfer type: URB_CONTROL (0x02)
    Packet Data Length: 8
    [Response in: 16]
    Control transfer stage: Setup (0)
Setup Data

0000  1c 00 00 00 00 00 00 00 00 00 00 00 00 00 0b 00   ................
0010  00 03 00 04 00 80 02 08 00 00 00 00 80 06 00 02   ................
0020  00 00 49 03                                       ..I.

No.     Time           Source                Destination           Protocol Length Info                                                            Device Address Endpoint Address Transfer Type
     16 0.000000       3.4.0                 host                  USB      869    GET DESCRIPTOR Response CONFIGURATION                           4              0x80             0x02

Frame 16: 869 bytes on wire (6952 bits), 869 bytes captured (6952 bits) on interface \\.\USBPcap3, id 0
USB URB
    [Source: 3.4.0]
    [Destination: host]
    USBPcap pseudoheader length: 28
    IRP ID: 0x0000000000000000
    IRP USBD_STATUS: USBD_STATUS_SUCCESS (0x00000000)
    URB Function: URB_FUNCTION_CONTROL_TRANSFER (0x0008)
    IRP information: 0x01, Direction: PDO -> FDO
        0000 000. = Reserved: 0x00
        .... ...1 = Direction: PDO -> FDO (0x1)
    URB bus id: 3
    Device address: 4
    Endpoint: 0x80, Direction: IN
    URB transfer type: URB_CONTROL (0x02)
    Packet Data Length: 841
    [Request in: 15]
    [Time from request: 0.000000000 seconds]
    Control transfer stage: Complete (3)
CONFIGURATION DESCRIPTOR
    bLength: 9
    bDescriptorType: 0x02 (CONFIGURATION)
    wTotalLength: 841
    bNumInterfaces: 5
    bConfigurationValue: 1
    iConfiguration: 0
    Configuration bmAttributes: 0xc0  SELF-POWERED  NO REMOTE-WAKEUP
    bMaxPower: 100  (200mA)
INTERFACE ASSOCIATION DESCRIPTOR
    bLength: 8
    bDescriptorType: 0x0b (INTERFACE ASSOCIATION)
    bFirstInterface: 0
    bInterfaceCount: 2
    bFunctionClass: Video (0x0e)
    bFunctionSubClass: 0x03
    bFunctionProtocol: 0x00
    iFunction: 4
INTERFACE DESCRIPTOR (0.0): class Video
    bLength: 9
    bDescriptorType: 0x04 (INTERFACE)
    bInterfaceNumber: 0
    bAlternateSetting: 0
    bNumEndpoints: 1
    bInterfaceClass: Video (0x0e)
    bInterfaceSubClass: 0x01
    bInterfaceProtocol: 0x00
    iInterface: 4
VIDEO CONTROL INTERFACE DESCRIPTOR [Header]
VIDEO CONTROL INTERFACE DESCRIPTOR [Input Terminal] (Entity 1)
VIDEO CONTROL INTERFACE DESCRIPTOR [Processing Unit] (Entity 2)
VIDEO CONTROL INTERFACE DESCRIPTOR [Extension Unit] (Entity 6)
VIDEO CONTROL INTERFACE DESCRIPTOR [Output Terminal] (Entity 3)
ENDPOINT DESCRIPTOR
    bLength: 7
    bDescriptorType: 0x05 (ENDPOINT)
    bEndpointAddress: 0x81  IN  Endpoint:1
    bmAttributes: 0x03
    wMaxPacketSize: 16
    bInterval: 8
VIDEO CONTROL ENDPOINT DESCRIPTOR [Interrupt]
INTERFACE DESCRIPTOR (1.0): class Video
    bLength: 9
    bDescriptorType: 0x04 (INTERFACE)
    bInterfaceNumber: 1
    bAlternateSetting: 0
    bNumEndpoints: 0
    bInterfaceClass: Video (0x0e)
    bInterfaceSubClass: 0x02
    bInterfaceProtocol: 0x00
    iInterface: 0
VIDEO STREAMING INTERFACE DESCRIPTOR [Input Header]
VIDEO STREAMING INTERFACE DESCRIPTOR [Format MJPEG]  (Format 1)
VIDEO STREAMING INTERFACE DESCRIPTOR [Frame MJPEG]   (Index  1): 2560 x 1440
VIDEO STREAMING INTERFACE DESCRIPTOR [Frame MJPEG]   (Index  2): 1920 x 1080
VIDEO STREAMING INTERFACE DESCRIPTOR [Frame MJPEG]   (Index  3): 1280 x  720
VIDEO STREAMING INTERFACE DESCRIPTOR [Frame MJPEG]   (Index  4):  640 x  480
VIDEO STREAMING INTERFACE DESCRIPTOR [Frame MJPEG]   (Index  5):  640 x  360
VIDEO STREAMING INTERFACE DESCRIPTOR [Frame MJPEG]   (Index  6):  320 x  240
VIDEO STREAMING INTERFACE DESCRIPTOR [Still Image Frame]
VIDEO STREAMING INTERFACE DESCRIPTOR [Format Uncompressed]  (Format 2): YUY2
VIDEO STREAMING INTERFACE DESCRIPTOR [Frame Uncompressed]   (Index  1):  640 x  480
VIDEO STREAMING INTERFACE DESCRIPTOR [Frame Uncompressed]   (Index  2):  640 x  360
VIDEO STREAMING INTERFACE DESCRIPTOR [Frame Uncompressed]   (Index  3):  320 x  240
VIDEO STREAMING INTERFACE DESCRIPTOR [Still Image Frame]
VIDEO STREAMING INTERFACE DESCRIPTOR [Format Frame-Based]  (Format 3): H264
VIDEO STREAMING INTERFACE DESCRIPTOR [Frame Frame-Based]   (Index  1): 2560 x 1440
VIDEO STREAMING INTERFACE DESCRIPTOR [Frame Frame-Based]   (Index  2): 1920 x 1080
VIDEO STREAMING INTERFACE DESCRIPTOR [Frame Frame-Based]   (Index  3): 1280 x  720
VIDEO STREAMING INTERFACE DESCRIPTOR [Frame Frame-Based]   (Index  4):  640 x  480
VIDEO STREAMING INTERFACE DESCRIPTOR [Frame Frame-Based]   (Index  5):  640 x  360
VIDEO STREAMING INTERFACE DESCRIPTOR [Frame Frame-Based]   (Index  6):  320 x  240
VIDEO STREAMING INTERFACE DESCRIPTOR [Colorformat]
INTERFACE DESCRIPTOR (1.1): class Video
    bLength: 9
    bDescriptorType: 0x04 (INTERFACE)
    bInterfaceNumber: 1
    bAlternateSetting: 1
    bNumEndpoints: 1
    bInterfaceClass: Video (0x0e)
    bInterfaceSubClass: 0x02
    bInterfaceProtocol: 0x00
    iInterface: 0
ENDPOINT DESCRIPTOR
    bLength: 7
    bDescriptorType: 0x05 (ENDPOINT)
    bEndpointAddress: 0x88  IN  Endpoint:8
    bmAttributes: 0x05
    wMaxPacketSize: 2 * 1024 = 2048
    bInterval: 1
INTERFACE ASSOCIATION DESCRIPTOR
    bLength: 8
    bDescriptorType: 0x0b (INTERFACE ASSOCIATION)
    bFirstInterface: 2
    bInterfaceCount: 2
    bFunctionClass: Audio (0x01)
    bFunctionSubClass: 0x00
    bFunctionProtocol: 0x00
    iFunction: 5
INTERFACE DESCRIPTOR (2.0): class Audio
    bLength: 9
    bDescriptorType: 0x04 (INTERFACE)
    bInterfaceNumber: 2
    bAlternateSetting: 0
    bNumEndpoints: 0
    bInterfaceClass: Audio (0x01)
    bInterfaceSubClass: Audio Control (0x01)
    bInterfaceProtocol: 0x00
    iInterface: 5
Class-specific Audio Control Interface Descriptor: Header Descriptor
Class-specific Audio Control Interface Descriptor: Input terminal descriptor
Class-specific Audio Control Interface Descriptor: Output terminal descriptor
Class-specific Audio Control Interface Descriptor: Feature unit descriptor
INTERFACE DESCRIPTOR (3.0): class Audio
    bLength: 9
    bDescriptorType: 0x04 (INTERFACE)
    bInterfaceNumber: 3
    bAlternateSetting: 0
    bNumEndpoints: 0
    bInterfaceClass: Audio (0x01)
    bInterfaceSubClass: Audio Streaming (0x02)
    bInterfaceProtocol: 0x00
    iInterface: 0
INTERFACE DESCRIPTOR (3.1): class Audio
    bLength: 9
    bDescriptorType: 0x04 (INTERFACE)
    bInterfaceNumber: 3
    bAlternateSetting: 1
    bNumEndpoints: 1
    bInterfaceClass: Audio (0x01)
    bInterfaceSubClass: Audio Streaming (0x02)
    bInterfaceProtocol: 0x00
    iInterface: 0
Class-specific Audio Streaming Interface Descriptor: General AS Descriptor
Class-specific Audio Streaming Interface Descriptor: Format type descriptor
ENDPOINT DESCRIPTOR
    bLength: 9
    bDescriptorType: 0x05 (ENDPOINT)
    bEndpointAddress: 0x82  IN  Endpoint:2
    bmAttributes: 0x0d
    wMaxPacketSize: 192
    bInterval: 4
    bRefresh: 0
    bSynchAddress: 0
Class-specific Audio Streaming Endpoint Descriptor
INTERFACE DESCRIPTOR (4.0): class HID
    bLength: 9
    bDescriptorType: 0x04 (INTERFACE)
    bInterfaceNumber: 4
    bAlternateSetting: 0
    bNumEndpoints: 2
    bInterfaceClass: HID (0x03)
    bInterfaceSubClass: No Subclass (0x00)
    bInterfaceProtocol: 0x00
    iInterface: 6
HID DESCRIPTOR
ENDPOINT DESCRIPTOR
    bLength: 7
    bDescriptorType: 0x05 (ENDPOINT)
    bEndpointAddress: 0x83  IN  Endpoint:3
    bmAttributes: 0x03
    wMaxPacketSize: 1024
    bInterval: 4
ENDPOINT DESCRIPTOR
    bLength: 7
    bDescriptorType: 0x05 (ENDPOINT)
    bEndpointAddress: 0x01  OUT  Endpoint:1
    bmAttributes: 0x03
    wMaxPacketSize: 1024
    bInterval: 4

0000  1c 00 00 00 00 00 00 00 00 00 00 00 00 00 08 00   ................
0010  01 03 00 04 00 80 02 49 03 00 00 03 09 02 49 03   .......I......I.
0020  05 01 00 c0 64 08 0b 00 02 0e 03 00 04 09 04 00   ....d...........
0030  00 01 0e 01 00 04 0d 24 01 10 01 50 00 00 6c dc   .......$...P..l.
0040  02 01 01 12 24 02 01 01 02 00 00 00 00 00 00 00   ....$...........
0050  00 03 2a 8a 02 0c 24 05 02 01 00 40 02 7f 14 00   ..*...$....@....
0060  00 1c 24 06 06 a2 9e 76 41 de 04 47 e3 8b 2b f4   ..$....vA..G..+.
0070  34 1a ff 00 3b 0f 01 02 03 00 f8 27 00 09 24 03   4...;......'..$.
0080  03 01 01 00 04 00 07 05 81 03 10 00 08 05 25 03   ..............%.
0090  10 00 09 04 01 00 00 0e 02 00 00 10 24 01 03 2e   ............$...
00a0  02 88 00 03 02 01 01 01 00 04 00 0b 24 06 01 06   ............$...
00b0  00 01 00 00 00 00 1e 24 07 01 00 00 0a a0 05 00   .......$........
00c0  00 65 04 00 00 65 04 00 80 70 00 15 16 05 00 01   .e...e...p......
00d0  15 16 05 00 1e 24 07 02 00 80 07 38 04 00 d0 78   .....$.....8...x
00e0  02 00 d0 78 02 00 48 3f 00 15 16 05 00 01 15 16   ...x..H?........
00f0  05 00 1e 24 07 03 00 00 05 d0 02 00 40 19 01 00   ...$........@...
0100  40 19 01 00 20 1c 00 15 16 05 00 01 15 16 05 00   @... ...........
0110  1e 24 07 04 00 80 02 e0 01 00 c0 5d 00 00 c0 5d   .$.........]...]
0120  00 00 60 09 00 15 16 05 00 01 15 16 05 00 1e 24   ..`............$
0130  07 05 00 80 02 68 01 00 50 46 00 00 50 46 00 00   .....h..PF..PF..
0140  08 07 00 15 16 05 00 01 15 16 05 00 1e 24 07 06   .............$..
0150  00 40 01 f0 00 00 70 17 00 00 70 17 00 00 58 02   .@....p...p...X.
0160  00 15 16 05 00 01 15 16 05 00 0a 24 03 00 01 80   ...........$....
0170  07 38 04 00 1b 24 04 02 03 59 55 59 32 00 00 10   .8...$...YUY2...
0180  00 80 00 00 aa 00 38 9b 71 10 01 00 00 00 00 1e   ......8.q.......
0190  24 05 01 00 80 02 e0 01 00 c0 5d 00 00 c0 5d 00   $.........]...].
01a0  00 60 09 00 15 16 05 00 01 15 16 05 00 1e 24 05   .`............$.
01b0  02 00 80 02 68 01 00 50 46 00 00 50 46 00 00 08   ....h..PF..PF...
01c0  07 00 15 16 05 00 01 15 16 05 00 1e 24 05 03 00   ............$...
01d0  40 01 f0 00 00 70 17 00 00 70 17 00 00 58 02 00   @....p...p...X..
01e0  15 16 05 00 01 15 16 05 00 0a 24 03 00 01 80 07   ..........$.....
01f0  38 04 00 1c 24 10 03 06 48 32 36 34 00 00 10 00   8...$...H264....
0200  80 00 00 aa 00 38 9b 71 10 01 00 00 00 00 01 1e   .....8.q........
0210  24 11 01 00 00 0a a0 05 00 80 32 02 00 80 32 02   $.........2...2.
0220  15 16 05 00 01 00 00 00 00 15 16 05 00 1e 24 11   ..............$.
0230  02 00 80 07 38 04 00 68 3c 01 00 68 3c 01 15 16   ....8..h<..h<...
0240  05 00 01 00 00 00 00 15 16 05 00 1e 24 11 03 00   ............$...
0250  00 05 d0 02 00 a0 8c 00 00 a0 8c 00 15 16 05 00   ................
0260  01 00 00 00 00 15 16 05 00 1e 24 11 04 00 80 02   ..........$.....
0270  e0 01 00 e0 2e 00 00 e0 2e 00 15 16 05 00 01 00   ................
0280  00 00 00 15 16 05 00 1e 24 11 05 00 80 02 68 01   ........$.....h.
0290  00 28 23 00 00 28 23 00 15 16 05 00 01 00 00 00   .(#..(#.........
02a0  00 15 16 05 00 1e 24 11 06 00 40 01 f0 00 00 b8   ......$...@.....
02b0  0b 00 00 b8 0b 00 15 16 05 00 01 00 00 00 00 15   ................
02c0  16 05 00 06 24 0d 01 01 04 09 04 01 01 01 0e 02   ....$...........
02d0  00 00 07 05 88 05 00 0c 01 08 0b 02 02 01 00 00   ................
02e0  05 09 04 02 00 00 01 01 00 05 09 24 01 00 01 27   ...........$...'
02f0  00 01 03 0c 24 02 02 01 02 00 02 03 00 00 00 09   ....$...........
0300  24 03 04 01 01 00 06 00 09 24 06 06 02 02 03 00   $........$......
0310  00 09 04 03 00 00 01 02 00 00 09 04 03 01 01 01   ................
0320  02 00 00 07 24 01 04 01 01 00 0b 24 02 01 02 02   ....$......$....
0330  10 01 80 bb 00 09 05 82 0d c0 00 04 00 00 07 25   ...............%
0340  01 01 01 01 00 09 04 04 00 02 03 00 00 06 09 21   ...............!
0350  01 01 00 01 22 23 00 07 05 83 03 00 04 04 07 05   ...."#..........
0360  01 03 00 04 04                                    .....

No.     Time           Source                Destination           Protocol Length Info                                                            Device Address Endpoint Address Transfer Type
     17 0.000000       host                  3.4.0                 USB      36     SET CONFIGURATION Request                                       4              0x00             0x02

Frame 17: 36 bytes on wire (288 bits), 36 bytes captured (288 bits) on interface \\.\USBPcap3, id 0
USB URB
    [Source: host]
    [Destination: 3.4.0]
    USBPcap pseudoheader length: 28
    IRP ID: 0x0000000000000000
    IRP USBD_STATUS: USBD_STATUS_SUCCESS (0x00000000)
    URB Function: URB_FUNCTION_SELECT_CONFIGURATION (0x0000)
    IRP information: 0x00, Direction: FDO -> PDO
        0000 000. = Reserved: 0x00
        .... ...0 = Direction: FDO -> PDO (0x0)
    URB bus id: 3
    Device address: 4
    Endpoint: 0x00, Direction: OUT
    URB transfer type: URB_CONTROL (0x02)
    Packet Data Length: 8
    [Response in: 18]
    Control transfer stage: Setup (0)
Setup Data

0000  1c 00 00 00 00 00 00 00 00 00 00 00 00 00 00 00   ................
0010  00 03 00 04 00 00 02 08 00 00 00 00 00 09 01 00   ................
0020  00 00 00 00                                       ....

No.     Time           Source                Destination           Protocol Length Info                                                            Device Address Endpoint Address Transfer Type
     18 0.000000       3.4.0                 host                  USB      28     SET CONFIGURATION Response                                      4              0x00             0x02

Frame 18: 28 bytes on wire (224 bits), 28 bytes captured (224 bits) on interface \\.\USBPcap3, id 0
USB URB
    [Source: 3.4.0]
    [Destination: host]
    USBPcap pseudoheader length: 28
    IRP ID: 0x0000000000000000
    IRP USBD_STATUS: USBD_STATUS_SUCCESS (0x00000000)
    URB Function: URB_FUNCTION_SELECT_CONFIGURATION (0x0000)
    IRP information: 0x01, Direction: PDO -> FDO
        0000 000. = Reserved: 0x00
        .... ...1 = Direction: PDO -> FDO (0x1)
    URB bus id: 3
    Device address: 4
    Endpoint: 0x00, Direction: OUT
    URB transfer type: URB_CONTROL (0x02)
    Packet Data Length: 0
    [Request in: 17]
    [Time from request: 0.000000000 seconds]
    Control transfer stage: Complete (3)

0000  1c 00 00 00 00 00 00 00 00 00 00 00 00 00 00 00   ................
0010  01 03 00 04 00 00 02 00 00 00 00 03               ............

No.     Time           Source                Destination           Protocol Length Info                                                            Device Address Endpoint Address Transfer Type
     19 0.000000       host                  3.25.0                USB      36     GET DESCRIPTOR Request DEVICE                                   25             0x80             0x02

Frame 19: 36 bytes on wire (288 bits), 36 bytes captured (288 bits) on interface \\.\USBPcap3, id 0
USB URB
    [Source: host]
    [Destination: 3.25.0]
    USBPcap pseudoheader length: 28
    IRP ID: 0x0000000000000000
    IRP USBD_STATUS: USBD_STATUS_SUCCESS (0x00000000)
    URB Function: URB_FUNCTION_GET_DESCRIPTOR_FROM_DEVICE (0x000b)
    IRP information: 0x00, Direction: FDO -> PDO
        0000 000. = Reserved: 0x00
        .... ...0 = Direction: FDO -> PDO (0x0)
    URB bus id: 3
    Device address: 25
    Endpoint: 0x80, Direction: IN
    URB transfer type: URB_CONTROL (0x02)
    Packet Data Length: 8
    [Response in: 20]
    Control transfer stage: Setup (0)
Setup Data

0000  1c 00 00 00 00 00 00 00 00 00 00 00 00 00 0b 00   ................
0010  00 03 00 19 00 80 02 08 00 00 00 00 80 06 00 01   ................
0020  00 00 12 00                                       ....

No.     Time           Source                Destination           Protocol Length Info                                                            Device Address Endpoint Address Transfer Type
     20 0.000000       3.25.0                host                  USB      46     GET DESCRIPTOR Response DEVICE                                  25             0x80             0x02

Frame 20: 46 bytes on wire (368 bits), 46 bytes captured (368 bits) on interface \\.\USBPcap3, id 0
USB URB
    [Source: 3.25.0]
    [Destination: host]
    USBPcap pseudoheader length: 28
    IRP ID: 0x0000000000000000
    IRP USBD_STATUS: USBD_STATUS_SUCCESS (0x00000000)
    URB Function: URB_FUNCTION_CONTROL_TRANSFER (0x0008)
    IRP information: 0x01, Direction: PDO -> FDO
        0000 000. = Reserved: 0x00
        .... ...1 = Direction: PDO -> FDO (0x1)
    URB bus id: 3
    Device address: 25
    Endpoint: 0x80, Direction: IN
    URB transfer type: URB_CONTROL (0x02)
    Packet Data Length: 18
    [Request in: 19]
    [Time from request: 0.000000000 seconds]
    Control transfer stage: Complete (3)
DEVICE DESCRIPTOR
    bLength: 18
    bDescriptorType: 0x01 (DEVICE)
    bcdUSB: 0x0110
    bDeviceClass: Communications and CDC Control (0x02)
    bDeviceSubClass: 0
    bDeviceProtocol: 0
    bMaxPacketSize0: 64
    idVendor: Keil Software, Inc. (0xc251)
    idProduct: Unknown (0x2005)
    bcdDevice: 0x0100
    iManufacturer: 1
    iProduct: 2
    iSerialNumber: 3
    bNumConfigurations: 1

0000  1c 00 00 00 00 00 00 00 00 00 00 00 00 00 08 00   ................
0010  01 03 00 19 00 80 02 12 00 00 00 03 12 01 10 01   ................
0020  02 00 00 40 51 c2 05 20 00 01 01 02 03 01         ...@Q.. ......

No.     Time           Source                Destination           Protocol Length Info                                                            Device Address Endpoint Address Transfer Type
     21 0.000000       host                  3.25.0                USB      36     GET DESCRIPTOR Request CONFIGURATION                            25             0x80             0x02

Frame 21: 36 bytes on wire (288 bits), 36 bytes captured (288 bits) on interface \\.\USBPcap3, id 0
USB URB
    [Source: host]
    [Destination: 3.25.0]
    USBPcap pseudoheader length: 28
    IRP ID: 0x0000000000000000
    IRP USBD_STATUS: USBD_STATUS_SUCCESS (0x00000000)
    URB Function: URB_FUNCTION_GET_DESCRIPTOR_FROM_DEVICE (0x000b)
    IRP information: 0x00, Direction: FDO -> PDO
        0000 000. = Reserved: 0x00
        .... ...0 = Direction: FDO -> PDO (0x0)
    URB bus id: 3
    Device address: 25
    Endpoint: 0x80, Direction: IN
    URB transfer type: URB_CONTROL (0x02)
    Packet Data Length: 8
    [Response in: 22]
    Control transfer stage: Setup (0)
Setup Data

0000  1c 00 00 00 00 00 00 00 00 00 00 00 00 00 0b 00   ................
0010  00 03 00 19 00 80 02 08 00 00 00 00 80 06 00 02   ................
0020  00 00 43 00                                       ..C.

No.     Time           Source                Destination           Protocol Length Info                                                            Device Address Endpoint Address Transfer Type
     22 0.000000       3.25.0                host                  USB      95     GET DESCRIPTOR Response CONFIGURATION                           25             0x80             0x02

Frame 22: 95 bytes on wire (760 bits), 95 bytes captured (760 bits) on interface \\.\USBPcap3, id 0
USB URB
    [Source: 3.25.0]
    [Destination: host]
    USBPcap pseudoheader length: 28
    IRP ID: 0x0000000000000000
    IRP USBD_STATUS: USBD_STATUS_SUCCESS (0x00000000)
    URB Function: URB_FUNCTION_CONTROL_TRANSFER (0x0008)
    IRP information: 0x01, Direction: PDO -> FDO
        0000 000. = Reserved: 0x00
        .... ...1 = Direction: PDO -> FDO (0x1)
    URB bus id: 3
    Device address: 25
    Endpoint: 0x80, Direction: IN
    URB transfer type: URB_CONTROL (0x02)
    Packet Data Length: 67
    [Request in: 21]
    [Time from request: 0.000000000 seconds]
    Control transfer stage: Complete (3)
CONFIGURATION DESCRIPTOR
    bLength: 9
    bDescriptorType: 0x02 (CONFIGURATION)
    wTotalLength: 67
    bNumInterfaces: 2
    bConfigurationValue: 1
    iConfiguration: 0
    Configuration bmAttributes: 0xc0  SELF-POWERED  NO REMOTE-WAKEUP
    bMaxPower: 50  (100mA)
INTERFACE DESCRIPTOR (0.0): class Communications and CDC Control
    bLength: 9
    bDescriptorType: 0x04 (INTERFACE)
    bInterfaceNumber: 0
    bAlternateSetting: 0
    bNumEndpoints: 1
    bInterfaceClass: Communications and CDC Control (0x02)
    bInterfaceSubClass: Abstract Control Model (0x02)
    bInterfaceProtocol: No class specific protocol required (0x00)
    iInterface: 0
COMMUNICATIONS DESCRIPTOR
    bLength: 5
    bDescriptorType: 0x24 (CS_INTERFACE)
    Descriptor Subtype: Header Functional Descriptor (0x00)
    CDC: 0x0110
COMMUNICATIONS DESCRIPTOR
    bLength: 4
    bDescriptorType: 0x24 (CS_INTERFACE)
    Descriptor Subtype: Abstract Control Management Functional Descriptor (0x02)
    bmCapabilities: 0x02
COMMUNICATIONS DESCRIPTOR
    bLength: 5
    bDescriptorType: 0x24 (CS_INTERFACE)
    Descriptor Subtype: Union Functional Descriptor (0x06)
    Control Interface: 0x00
    Subordinate Interface: 0x01
COMMUNICATIONS DESCRIPTOR
    bLength: 5
    bDescriptorType: 0x24 (CS_INTERFACE)
    Descriptor Subtype: Call Management Functional Descriptor (0x01)
    bmCapabilities: 0x00
    Data Interface: 0x00
ENDPOINT DESCRIPTOR
    bLength: 7
    bDescriptorType: 0x05 (ENDPOINT)
    bEndpointAddress: 0x81  IN  Endpoint:1
    bmAttributes: 0x03
    wMaxPacketSize: 64
    bInterval: 2
INTERFACE DESCRIPTOR (1.0): class CDC-Data
    bLength: 9
    bDescriptorType: 0x04 (INTERFACE)
    bInterfaceNumber: 1
    bAlternateSetting: 0
    bNumEndpoints: 2
    bInterfaceClass: CDC-Data (0x0a)
    bInterfaceSubClass: 0x00
    bInterfaceProtocol: No class specific protocol required (0x00)
    iInterface: 0
ENDPOINT DESCRIPTOR
    bLength: 7
    bDescriptorType: 0x05 (ENDPOINT)
    bEndpointAddress: 0x82  IN  Endpoint:2
    bmAttributes: 0x02
    wMaxPacketSize: 64
    bInterval: 0
ENDPOINT DESCRIPTOR
    bLength: 7
    bDescriptorType: 0x05 (ENDPOINT)
    bEndpointAddress: 0x02  OUT  Endpoint:2
    bmAttributes: 0x02
    wMaxPacketSize: 64
    bInterval: 0

0000  1c 00 00 00 00 00 00 00 00 00 00 00 00 00 08 00   ................
0010  01 03 00 19 00 80 02 43 00 00 00 03 09 02 43 00   .......C......C.
0020  02 01 00 c0 32 09 04 00 00 01 02 02 00 00 05 24   ....2..........$
0030  00 10 01 04 24 02 02 05 24 06 00 01 05 24 01 00   ....$...$....$..
0040  00 07 05 81 03 40 00 02 09 04 01 00 02 0a 00 00   .....@..........
0050  00 07 05 82 02 40 00 00 07 05 02 02 40 00 00      .....@......@..

No.     Time           Source                Destination           Protocol Length Info                                                            Device Address Endpoint Address Transfer Type
     23 0.000000       host                  3.25.0                USB      36     SET CONFIGURATION Request                                       25             0x00             0x02

Frame 23: 36 bytes on wire (288 bits), 36 bytes captured (288 bits) on interface \\.\USBPcap3, id 0
USB URB
    [Source: host]
    [Destination: 3.25.0]
    USBPcap pseudoheader length: 28
    IRP ID: 0x0000000000000000
    IRP USBD_STATUS: USBD_STATUS_SUCCESS (0x00000000)
    URB Function: URB_FUNCTION_SELECT_CONFIGURATION (0x0000)
    IRP information: 0x00, Direction: FDO -> PDO
        0000 000. = Reserved: 0x00
        .... ...0 = Direction: FDO -> PDO (0x0)
    URB bus id: 3
    Device address: 25
    Endpoint: 0x00, Direction: OUT
    URB transfer type: URB_CONTROL (0x02)
    Packet Data Length: 8
    [Response in: 24]
    Control transfer stage: Setup (0)
Setup Data

0000  1c 00 00 00 00 00 00 00 00 00 00 00 00 00 00 00   ................
0010  00 03 00 19 00 00 02 08 00 00 00 00 00 09 01 00   ................
0020  00 00 00 00                                       ....

No.     Time           Source                Destination           Protocol Length Info                                                            Device Address Endpoint Address Transfer Type
     24 0.000000       3.25.0                host                  USB      28     SET CONFIGURATION Response                                      25             0x00             0x02

Frame 24: 28 bytes on wire (224 bits), 28 bytes captured (224 bits) on interface \\.\USBPcap3, id 0
USB URB
    [Source: 3.25.0]
    [Destination: host]
    USBPcap pseudoheader length: 28
    IRP ID: 0x0000000000000000
    IRP USBD_STATUS: USBD_STATUS_SUCCESS (0x00000000)
    URB Function: URB_FUNCTION_SELECT_CONFIGURATION (0x0000)
    IRP information: 0x01, Direction: PDO -> FDO
        0000 000. = Reserved: 0x00
        .... ...1 = Direction: PDO -> FDO (0x1)
    URB bus id: 3
    Device address: 25
    Endpoint: 0x00, Direction: OUT
    URB transfer type: URB_CONTROL (0x02)
    Packet Data Length: 0
    [Request in: 23]
    [Time from request: 0.000000000 seconds]
    Control transfer stage: Complete (3)

0000  1c 00 00 00 00 00 00 00 00 00 00 00 00 00 00 00   ................
0010  01 03 00 19 00 00 02 00 00 00 00 03               ............

No.     Time           Source                Destination           Protocol Length Info                                                            Device Address Endpoint Address Transfer Type
     91 3.370081       3.25.2                host                  USBCOM   28     URB_BULK in                                                     25             0x82             0x03

Frame 91: 28 bytes on wire (224 bits), 28 bytes captured (224 bits) on interface \\.\USBPcap3, id 0
USB URB
    [Source: 3.25.2]
    [Destination: host]
    USBPcap pseudoheader length: 27
    IRP ID: 0xffffe703273d9010
    IRP USBD_STATUS: USBD_STATUS_SUCCESS (0x00000000)
    URB Function: URB_FUNCTION_BULK_OR_INTERRUPT_TRANSFER (0x0009)
    IRP information: 0x01, Direction: PDO -> FDO
        0000 000. = Reserved: 0x00
        .... ...1 = Direction: PDO -> FDO (0x1)
    URB bus id: 3
    Device address: 25
    Endpoint: 0x82, Direction: IN
    URB transfer type: URB_BULK (0x03)
    Packet Data Length: 1
    [bInterfaceClass: CDC-Data (0x0a)]
USB Communications and CDC Control
    [Stream index: 0]
    IN payload: 01

0000  1b 00 10 90 3d 27 03 e7 ff ff 00 00 00 00 09 00   ....='..........
0010  01 03 00 19 00 82 03 01 00 00 00 01               ............

No.     Time           Source                Destination           Protocol Length Info                                                            Device Address Endpoint Address Transfer Type
     92 3.370184       host                  3.25.2                USB      27     URB_BULK in                                                     25             0x82             0x03

Frame 92: 27 bytes on wire (216 bits), 27 bytes captured (216 bits) on interface \\.\USBPcap3, id 0
USB URB
    [Source: host]
    [Destination: 3.25.2]
    USBPcap pseudoheader length: 27
    IRP ID: 0xffffe703273d9010
    IRP USBD_STATUS: USBD_STATUS_SUCCESS (0x00000000)
    URB Function: URB_FUNCTION_BULK_OR_INTERRUPT_TRANSFER (0x0009)
    IRP information: 0x00, Direction: FDO -> PDO
        0000 000. = Reserved: 0x00
        .... ...0 = Direction: FDO -> PDO (0x0)
    URB bus id: 3
    Device address: 25
    Endpoint: 0x82, Direction: IN
    URB transfer type: URB_BULK (0x03)
    Packet Data Length: 0
    [Response in: 95]
    [bInterfaceClass: CDC-Data (0x0a)]

0000  1b 00 10 90 3d 27 03 e7 ff ff 00 00 00 00 09 00   ....='..........
0010  00 03 00 19 00 82 03 00 00 00 00                  ...........

No.     Time           Source                Destination           Protocol Length Info                                                            Device Address Endpoint Address Transfer Type
     95 3.476494       3.25.2                host                  USBCOM   28     URB_BULK in                                                     25             0x82             0x03

Frame 95: 28 bytes on wire (224 bits), 28 bytes captured (224 bits) on interface \\.\USBPcap3, id 0
USB URB
    [Source: 3.25.2]
    [Destination: host]
    USBPcap pseudoheader length: 27
    IRP ID: 0xffffe703273d9010
    IRP USBD_STATUS: USBD_STATUS_SUCCESS (0x00000000)
    URB Function: URB_FUNCTION_BULK_OR_INTERRUPT_TRANSFER (0x0009)
    IRP information: 0x01, Direction: PDO -> FDO
        0000 000. = Reserved: 0x00
        .... ...1 = Direction: PDO -> FDO (0x1)
    URB bus id: 3
    Device address: 25
    Endpoint: 0x82, Direction: IN
    URB transfer type: URB_BULK (0x03)
    Packet Data Length: 1
    [Request in: 92]
    [Time from request: 0.106310000 seconds]
    [bInterfaceClass: CDC-Data (0x0a)]
USB Communications and CDC Control
    [Stream index: 0]
    IN payload: 81

0000  1b 00 10 90 3d 27 03 e7 ff ff 00 00 00 00 09 00   ....='..........
0010  01 03 00 19 00 82 03 01 00 00 00 81               ............

No.     Time           Source                Destination           Protocol Length Info                                                            Device Address Endpoint Address Transfer Type
     96 3.476578       host                  3.25.2                USB      27     URB_BULK in                                                     25             0x82             0x03

Frame 96: 27 bytes on wire (216 bits), 27 bytes captured (216 bits) on interface \\.\USBPcap3, id 0
USB URB
    [Source: host]
    [Destination: 3.25.2]
    USBPcap pseudoheader length: 27
    IRP ID: 0xffffe703273d9010
    IRP USBD_STATUS: USBD_STATUS_SUCCESS (0x00000000)
    URB Function: URB_FUNCTION_BULK_OR_INTERRUPT_TRANSFER (0x0009)
    IRP information: 0x00, Direction: FDO -> PDO
        0000 000. = Reserved: 0x00
        .... ...0 = Direction: FDO -> PDO (0x0)
    URB bus id: 3
    Device address: 25
    Endpoint: 0x82, Direction: IN
    URB transfer type: URB_BULK (0x03)
    Packet Data Length: 0
    [Response in: 3283]
    [bInterfaceClass: CDC-Data (0x0a)]

0000  1b 00 10 90 3d 27 03 e7 ff ff 00 00 00 00 09 00   ....='..........
0010  00 03 00 19 00 82 03 00 00 00 00                  ...........

No.     Time           Source                Destination           Protocol Length Info                                                            Device Address Endpoint Address Transfer Type
   3283 27.943517      3.25.2                host                  USBCOM   28     URB_BULK in                                                     25             0x82             0x03

Frame 3283: 28 bytes on wire (224 bits), 28 bytes captured (224 bits) on interface \\.\USBPcap3, id 0
USB URB
    [Source: 3.25.2]
    [Destination: host]
    USBPcap pseudoheader length: 27
    IRP ID: 0xffffe703273d9010
    IRP USBD_STATUS: USBD_STATUS_SUCCESS (0x00000000)
    URB Function: URB_FUNCTION_BULK_OR_INTERRUPT_TRANSFER (0x0009)
    IRP information: 0x01, Direction: PDO -> FDO
        0000 000. = Reserved: 0x00
        .... ...1 = Direction: PDO -> FDO (0x1)
    URB bus id: 3
    Device address: 25
    Endpoint: 0x82, Direction: IN
    URB transfer type: URB_BULK (0x03)
    Packet Data Length: 1
    [Request in: 96]
    [Time from request: 24.466939000 seconds]
    [bInterfaceClass: CDC-Data (0x0a)]
USB Communications and CDC Control
    [Stream index: 0]
    IN payload: 0a

0000  1b 00 10 90 3d 27 03 e7 ff ff 00 00 00 00 09 00   ....='..........
0010  01 03 00 19 00 82 03 01 00 00 00 0a               ............

No.     Time           Source                Destination           Protocol Length Info                                                            Device Address Endpoint Address Transfer Type
   3284 27.943619      host                  3.25.2                USB      27     URB_BULK in                                                     25             0x82             0x03

Frame 3284: 27 bytes on wire (216 bits), 27 bytes captured (216 bits) on interface \\.\USBPcap3, id 0
USB URB
    [Source: host]
    [Destination: 3.25.2]
    USBPcap pseudoheader length: 27
    IRP ID: 0xffffe703273d9010
    IRP USBD_STATUS: USBD_STATUS_SUCCESS (0x00000000)
    URB Function: URB_FUNCTION_BULK_OR_INTERRUPT_TRANSFER (0x0009)
    IRP information: 0x00, Direction: FDO -> PDO
        0000 000. = Reserved: 0x00
        .... ...0 = Direction: FDO -> PDO (0x0)
    URB bus id: 3
    Device address: 25
    Endpoint: 0x82, Direction: IN
    URB transfer type: URB_BULK (0x03)
    Packet Data Length: 0
    [Response in: 3285]
    [bInterfaceClass: CDC-Data (0x0a)]

0000  1b 00 10 90 3d 27 03 e7 ff ff 00 00 00 00 09 00   ....='..........
0010  00 03 00 19 00 82 03 00 00 00 00                  ...........

No.     Time           Source                Destination           Protocol Length Info                                                            Device Address Endpoint Address Transfer Type
   3285 28.105706      3.25.2                host                  USBCOM   28     URB_BULK in                                                     25             0x82             0x03

Frame 3285: 28 bytes on wire (224 bits), 28 bytes captured (224 bits) on interface \\.\USBPcap3, id 0
USB URB
    [Source: 3.25.2]
    [Destination: host]
    USBPcap pseudoheader length: 27
    IRP ID: 0xffffe703273d9010
    IRP USBD_STATUS: USBD_STATUS_SUCCESS (0x00000000)
    URB Function: URB_FUNCTION_BULK_OR_INTERRUPT_TRANSFER (0x0009)
    IRP information: 0x01, Direction: PDO -> FDO
        0000 000. = Reserved: 0x00
        .... ...1 = Direction: PDO -> FDO (0x1)
    URB bus id: 3
    Device address: 25
    Endpoint: 0x82, Direction: IN
    URB transfer type: URB_BULK (0x03)
    Packet Data Length: 1
    [Request in: 3284]
    [Time from request: 0.162087000 seconds]
    [bInterfaceClass: CDC-Data (0x0a)]
USB Communications and CDC Control
    [Stream index: 0]
    IN payload: 8a

0000  1b 00 10 90 3d 27 03 e7 ff ff 00 00 00 00 09 00   ....='..........
0010  01 03 00 19 00 82 03 01 00 00 00 8a               ............

No.     Time           Source                Destination           Protocol Length Info                                                            Device Address Endpoint Address Transfer Type
   3286 28.105756      host                  3.25.2                USB      27     URB_BULK in                                                     25             0x82             0x03

Frame 3286: 27 bytes on wire (216 bits), 27 bytes captured (216 bits) on interface \\.\USBPcap3, id 0
USB URB
    [Source: host]
    [Destination: 3.25.2]
    USBPcap pseudoheader length: 27
    IRP ID: 0xffffe703273d9010
    IRP USBD_STATUS: USBD_STATUS_SUCCESS (0x00000000)
    URB Function: URB_FUNCTION_BULK_OR_INTERRUPT_TRANSFER (0x0009)
    IRP information: 0x00, Direction: FDO -> PDO
        0000 000. = Reserved: 0x00
        .... ...0 = Direction: FDO -> PDO (0x0)
    URB bus id: 3
    Device address: 25
    Endpoint: 0x82, Direction: IN
    URB transfer type: URB_BULK (0x03)
    Packet Data Length: 0
    [Response in: 4491]
    [bInterfaceClass: CDC-Data (0x0a)]

0000  1b 00 10 90 3d 27 03 e7 ff ff 00 00 00 00 09 00   ....='..........
0010  00 03 00 19 00 82 03 00 00 00 00                  ...........

No.     Time           Source                Destination           Protocol Length Info                                                            Device Address Endpoint Address Transfer Type
   4491 47.533429      3.25.2                host                  USBCOM   28     URB_BULK in                                                     25             0x82             0x03

Frame 4491: 28 bytes on wire (224 bits), 28 bytes captured (224 bits) on interface \\.\USBPcap3, id 0
USB URB
    [Source: 3.25.2]
    [Destination: host]
    USBPcap pseudoheader length: 27
    IRP ID: 0xffffe703273d9010
    IRP USBD_STATUS: USBD_STATUS_SUCCESS (0x00000000)
    URB Function: URB_FUNCTION_BULK_OR_INTERRUPT_TRANSFER (0x0009)
    IRP information: 0x01, Direction: PDO -> FDO
        0000 000. = Reserved: 0x00
        .... ...1 = Direction: PDO -> FDO (0x1)
    URB bus id: 3
    Device address: 25
    Endpoint: 0x82, Direction: IN
    URB transfer type: URB_BULK (0x03)
    Packet Data Length: 1
    [Request in: 3286]
    [Time from request: 19.427673000 seconds]
    [bInterfaceClass: CDC-Data (0x0a)]
USB Communications and CDC Control
    [Stream index: 0]
    IN payload: 02

0000  1b 00 10 90 3d 27 03 e7 ff ff 00 00 00 00 09 00   ....='..........
0010  01 03 00 19 00 82 03 01 00 00 00 02               ............

No.     Time           Source                Destination           Protocol Length Info                                                            Device Address Endpoint Address Transfer Type
   4492 47.533533      host                  3.25.2                USB      27     URB_BULK in                                                     25             0x82             0x03

Frame 4492: 27 bytes on wire (216 bits), 27 bytes captured (216 bits) on interface \\.\USBPcap3, id 0
USB URB
    [Source: host]
    [Destination: 3.25.2]
    USBPcap pseudoheader length: 27
    IRP ID: 0xffffe703273d9010
    IRP USBD_STATUS: USBD_STATUS_SUCCESS (0x00000000)
    URB Function: URB_FUNCTION_BULK_OR_INTERRUPT_TRANSFER (0x0009)
    IRP information: 0x00, Direction: FDO -> PDO
        0000 000. = Reserved: 0x00
        .... ...0 = Direction: FDO -> PDO (0x0)
    URB bus id: 3
    Device address: 25
    Endpoint: 0x82, Direction: IN
    URB transfer type: URB_BULK (0x03)
    Packet Data Length: 0
    [Response in: 4493]
    [bInterfaceClass: CDC-Data (0x0a)]

0000  1b 00 10 90 3d 27 03 e7 ff ff 00 00 00 00 09 00   ....='..........
0010  00 03 00 19 00 82 03 00 00 00 00                  ...........

No.     Time           Source                Destination           Protocol Length Info                                                            Device Address Endpoint Address Transfer Type
   4493 47.598646      3.25.2                host                  USBCOM   28     URB_BULK in                                                     25             0x82             0x03

Frame 4493: 28 bytes on wire (224 bits), 28 bytes captured (224 bits) on interface \\.\USBPcap3, id 0
USB URB
    [Source: 3.25.2]
    [Destination: host]
    USBPcap pseudoheader length: 27
    IRP ID: 0xffffe703273d9010
    IRP USBD_STATUS: USBD_STATUS_SUCCESS (0x00000000)
    URB Function: URB_FUNCTION_BULK_OR_INTERRUPT_TRANSFER (0x0009)
    IRP information: 0x01, Direction: PDO -> FDO
        0000 000. = Reserved: 0x00
        .... ...1 = Direction: PDO -> FDO (0x1)
    URB bus id: 3
    Device address: 25
    Endpoint: 0x82, Direction: IN
    URB transfer type: URB_BULK (0x03)
    Packet Data Length: 1
    [Request in: 4492]
    [Time from request: 0.065113000 seconds]
    [bInterfaceClass: CDC-Data (0x0a)]
USB Communications and CDC Control
    [Stream index: 0]
    IN payload: 82

0000  1b 00 10 90 3d 27 03 e7 ff ff 00 00 00 00 09 00   ....='..........
0010  01 03 00 19 00 82 03 01 00 00 00 82               ............

No.     Time           Source                Destination           Protocol Length Info                                                            Device Address Endpoint Address Transfer Type
   4494 47.599200      host                  3.25.2                USB      27     URB_BULK in                                                     25             0x82             0x03

Frame 4494: 27 bytes on wire (216 bits), 27 bytes captured (216 bits) on interface \\.\USBPcap3, id 0
USB URB
    [Source: host]
    [Destination: 3.25.2]
    USBPcap pseudoheader length: 27
    IRP ID: 0xffffe703273d9010
    IRP USBD_STATUS: USBD_STATUS_SUCCESS (0x00000000)
    URB Function: URB_FUNCTION_BULK_OR_INTERRUPT_TRANSFER (0x0009)
    IRP information: 0x00, Direction: FDO -> PDO
        0000 000. = Reserved: 0x00
        .... ...0 = Direction: FDO -> PDO (0x0)
    URB bus id: 3
    Device address: 25
    Endpoint: 0x82, Direction: IN
    URB transfer type: URB_BULK (0x03)
    Packet Data Length: 0
    [Response in: 5361]
    [bInterfaceClass: CDC-Data (0x0a)]

0000  1b 00 10 90 3d 27 03 e7 ff ff 00 00 00 00 09 00   ....='..........
0010  00 03 00 19 00 82 03 00 00 00 00                  ...........

No.     Time           Source                Destination           Protocol Length Info                                                            Device Address Endpoint Address Transfer Type
   5361 66.297017      3.25.2                host                  USBCOM   28     URB_BULK in                                                     25             0x82             0x03

Frame 5361: 28 bytes on wire (224 bits), 28 bytes captured (224 bits) on interface \\.\USBPcap3, id 0
USB URB
    [Source: 3.25.2]
    [Destination: host]
    USBPcap pseudoheader length: 27
    IRP ID: 0xffffe703273d9010
    IRP USBD_STATUS: USBD_STATUS_SUCCESS (0x00000000)
    URB Function: URB_FUNCTION_BULK_OR_INTERRUPT_TRANSFER (0x0009)
    IRP information: 0x01, Direction: PDO -> FDO
        0000 000. = Reserved: 0x00
        .... ...1 = Direction: PDO -> FDO (0x1)
    URB bus id: 3
    Device address: 25
    Endpoint: 0x82, Direction: IN
    URB transfer type: URB_BULK (0x03)
    Packet Data Length: 1
    [Request in: 4494]
    [Time from request: 18.697817000 seconds]
    [bInterfaceClass: CDC-Data (0x0a)]
USB Communications and CDC Control
    [Stream index: 0]
    IN payload: 22

0000  1b 00 10 90 3d 27 03 e7 ff ff 00 00 00 00 09 00   ....='..........
0010  01 03 00 19 00 82 03 01 00 00 00 22               ..........."

No.     Time           Source                Destination           Protocol Length Info                                                            Device Address Endpoint Address Transfer Type
   5362 66.297258      host                  3.25.2                USB      27     URB_BULK in                                                     25             0x82             0x03

Frame 5362: 27 bytes on wire (216 bits), 27 bytes captured (216 bits) on interface \\.\USBPcap3, id 0
USB URB
    [Source: host]
    [Destination: 3.25.2]
    USBPcap pseudoheader length: 27
    IRP ID: 0xffffe703273d9010
    IRP USBD_STATUS: USBD_STATUS_SUCCESS (0x00000000)
    URB Function: URB_FUNCTION_BULK_OR_INTERRUPT_TRANSFER (0x0009)
    IRP information: 0x00, Direction: FDO -> PDO
        0000 000. = Reserved: 0x00
        .... ...0 = Direction: FDO -> PDO (0x0)
    URB bus id: 3
    Device address: 25
    Endpoint: 0x82, Direction: IN
    URB transfer type: URB_BULK (0x03)
    Packet Data Length: 0
    [Response in: 5363]
    [bInterfaceClass: CDC-Data (0x0a)]

0000  1b 00 10 90 3d 27 03 e7 ff ff 00 00 00 00 09 00   ....='..........
0010  00 03 00 19 00 82 03 00 00 00 00                  ...........

No.     Time           Source                Destination           Protocol Length Info                                                            Device Address Endpoint Address Transfer Type
   5363 66.414714      3.25.2                host                  USBCOM   28     URB_BULK in                                                     25             0x82             0x03

Frame 5363: 28 bytes on wire (224 bits), 28 bytes captured (224 bits) on interface \\.\USBPcap3, id 0
USB URB
    [Source: 3.25.2]
    [Destination: host]
    USBPcap pseudoheader length: 27
    IRP ID: 0xffffe703273d9010
    IRP USBD_STATUS: USBD_STATUS_SUCCESS (0x00000000)
    URB Function: URB_FUNCTION_BULK_OR_INTERRUPT_TRANSFER (0x0009)
    IRP information: 0x01, Direction: PDO -> FDO
        0000 000. = Reserved: 0x00
        .... ...1 = Direction: PDO -> FDO (0x1)
    URB bus id: 3
    Device address: 25
    Endpoint: 0x82, Direction: IN
    URB transfer type: URB_BULK (0x03)
    Packet Data Length: 1
    [Request in: 5362]
    [Time from request: 0.117456000 seconds]
    [bInterfaceClass: CDC-Data (0x0a)]
USB Communications and CDC Control
    [Stream index: 0]
    IN payload: a2

0000  1b 00 10 90 3d 27 03 e7 ff ff 00 00 00 00 09 00   ....='..........
0010  01 03 00 19 00 82 03 01 00 00 00 a2               ............

No.     Time           Source                Destination           Protocol Length Info                                                            Device Address Endpoint Address Transfer Type
   5364 66.414852      host                  3.25.2                USB      27     URB_BULK in                                                     25             0x82             0x03

Frame 5364: 27 bytes on wire (216 bits), 27 bytes captured (216 bits) on interface \\.\USBPcap3, id 0
USB URB
    [Source: host]
    [Destination: 3.25.2]
    USBPcap pseudoheader length: 27
    IRP ID: 0xffffe703273d9010
    IRP USBD_STATUS: USBD_STATUS_SUCCESS (0x00000000)
    URB Function: URB_FUNCTION_BULK_OR_INTERRUPT_TRANSFER (0x0009)
    IRP information: 0x00, Direction: FDO -> PDO
        0000 000. = Reserved: 0x00
        .... ...0 = Direction: FDO -> PDO (0x0)
    URB bus id: 3
    Device address: 25
    Endpoint: 0x82, Direction: IN
    URB transfer type: URB_BULK (0x03)
    Packet Data Length: 0
    [Response in: 6549]
    [bInterfaceClass: CDC-Data (0x0a)]

0000  1b 00 10 90 3d 27 03 e7 ff ff 00 00 00 00 09 00   ....='..........
0010  00 03 00 19 00 82 03 00 00 00 00                  ...........

No.     Time           Source                Destination           Protocol Length Info                                                            Device Address Endpoint Address Transfer Type
   6549 80.841592      3.25.2                host                  USBCOM   28     URB_BULK in                                                     25             0x82             0x03

Frame 6549: 28 bytes on wire (224 bits), 28 bytes captured (224 bits) on interface \\.\USBPcap3, id 0
USB URB
    [Source: 3.25.2]
    [Destination: host]
    USBPcap pseudoheader length: 27
    IRP ID: 0xffffe703273d9010
    IRP USBD_STATUS: USBD_STATUS_SUCCESS (0x00000000)
    URB Function: URB_FUNCTION_BULK_OR_INTERRUPT_TRANSFER (0x0009)
    IRP information: 0x01, Direction: PDO -> FDO
        0000 000. = Reserved: 0x00
        .... ...1 = Direction: PDO -> FDO (0x1)
    URB bus id: 3
    Device address: 25
    Endpoint: 0x82, Direction: IN
    URB transfer type: URB_BULK (0x03)
    Packet Data Length: 1
    [Request in: 5364]
    [Time from request: 14.426740000 seconds]
    [bInterfaceClass: CDC-Data (0x0a)]
USB Communications and CDC Control
    [Stream index: 0]
    IN payload: 23

0000  1b 00 10 90 3d 27 03 e7 ff ff 00 00 00 00 09 00   ....='..........
0010  01 03 00 19 00 82 03 01 00 00 00 23               ...........#

No.     Time           Source                Destination           Protocol Length Info                                                            Device Address Endpoint Address Transfer Type
   6550 80.841695      host                  3.25.2                USB      27     URB_BULK in                                                     25             0x82             0x03

Frame 6550: 27 bytes on wire (216 bits), 27 bytes captured (216 bits) on interface \\.\USBPcap3, id 0
USB URB
    [Source: host]
    [Destination: 3.25.2]
    USBPcap pseudoheader length: 27
    IRP ID: 0xffffe703273d9010
    IRP USBD_STATUS: USBD_STATUS_SUCCESS (0x00000000)
    URB Function: URB_FUNCTION_BULK_OR_INTERRUPT_TRANSFER (0x0009)
    IRP information: 0x00, Direction: FDO -> PDO
        0000 000. = Reserved: 0x00
        .... ...0 = Direction: FDO -> PDO (0x0)
    URB bus id: 3
    Device address: 25
    Endpoint: 0x82, Direction: IN
    URB transfer type: URB_BULK (0x03)
    Packet Data Length: 0
    [Response in: 6551]
    [bInterfaceClass: CDC-Data (0x0a)]

0000  1b 00 10 90 3d 27 03 e7 ff ff 00 00 00 00 09 00   ....='..........
0010  00 03 00 19 00 82 03 00 00 00 00                  ...........

No.     Time           Source                Destination           Protocol Length Info                                                            Device Address Endpoint Address Transfer Type
   6551 80.989978      3.25.2                host                  USBCOM   28     URB_BULK in                                                     25             0x82             0x03

Frame 6551: 28 bytes on wire (224 bits), 28 bytes captured (224 bits) on interface \\.\USBPcap3, id 0
USB URB
    [Source: 3.25.2]
    [Destination: host]
    USBPcap pseudoheader length: 27
    IRP ID: 0xffffe703273d9010
    IRP USBD_STATUS: USBD_STATUS_SUCCESS (0x00000000)
    URB Function: URB_FUNCTION_BULK_OR_INTERRUPT_TRANSFER (0x0009)
    IRP information: 0x01, Direction: PDO -> FDO
        0000 000. = Reserved: 0x00
        .... ...1 = Direction: PDO -> FDO (0x1)
    URB bus id: 3
    Device address: 25
    Endpoint: 0x82, Direction: IN
    URB transfer type: URB_BULK (0x03)
    Packet Data Length: 1
    [Request in: 6550]
    [Time from request: 0.148283000 seconds]
    [bInterfaceClass: CDC-Data (0x0a)]
USB Communications and CDC Control
    [Stream index: 0]
    IN payload: a3

0000  1b 00 10 90 3d 27 03 e7 ff ff 00 00 00 00 09 00   ....='..........
0010  01 03 00 19 00 82 03 01 00 00 00 a3               ............

No.     Time           Source                Destination           Protocol Length Info                                                            Device Address Endpoint Address Transfer Type
   6552 80.990035      host                  3.25.2                USB      27     URB_BULK in                                                     25             0x82             0x03

Frame 6552: 27 bytes on wire (216 bits), 27 bytes captured (216 bits) on interface \\.\USBPcap3, id 0
USB URB
    [Source: host]
    [Destination: 3.25.2]
    USBPcap pseudoheader length: 27
    IRP ID: 0xffffe703273d9010
    IRP USBD_STATUS: USBD_STATUS_SUCCESS (0x00000000)
    URB Function: URB_FUNCTION_BULK_OR_INTERRUPT_TRANSFER (0x0009)
    IRP information: 0x00, Direction: FDO -> PDO
        0000 000. = Reserved: 0x00
        .... ...0 = Direction: FDO -> PDO (0x0)
    URB bus id: 3
    Device address: 25
    Endpoint: 0x82, Direction: IN
    URB transfer type: URB_BULK (0x03)
    Packet Data Length: 0
    [Response in: 7821]
    [bInterfaceClass: CDC-Data (0x0a)]

0000  1b 00 10 90 3d 27 03 e7 ff ff 00 00 00 00 09 00   ....='..........
0010  00 03 00 19 00 82 03 00 00 00 00                  ...........

No.     Time           Source                Destination           Protocol Length Info                                                            Device Address Endpoint Address Transfer Type
   7821 97.310939      3.25.2                host                  USBCOM   28     URB_BULK in                                                     25             0x82             0x03

Frame 7821: 28 bytes on wire (224 bits), 28 bytes captured (224 bits) on interface \\.\USBPcap3, id 0
USB URB
    [Source: 3.25.2]
    [Destination: host]
    USBPcap pseudoheader length: 27
    IRP ID: 0xffffe703273d9010
    IRP USBD_STATUS: USBD_STATUS_SUCCESS (0x00000000)
    URB Function: URB_FUNCTION_BULK_OR_INTERRUPT_TRANSFER (0x0009)
    IRP information: 0x01, Direction: PDO -> FDO
        0000 000. = Reserved: 0x00
        .... ...1 = Direction: PDO -> FDO (0x1)
    URB bus id: 3
    Device address: 25
    Endpoint: 0x82, Direction: IN
    URB transfer type: URB_BULK (0x03)
    Packet Data Length: 1
    [Request in: 6552]
    [Time from request: 16.320904000 seconds]
    [bInterfaceClass: CDC-Data (0x0a)]
USB Communications and CDC Control
    [Stream index: 0]
    IN payload: 00

0000  1b 00 10 90 3d 27 03 e7 ff ff 00 00 00 00 09 00   ....='..........
0010  01 03 00 19 00 82 03 01 00 00 00 00               ............

No.     Time           Source                Destination           Protocol Length Info                                                            Device Address Endpoint Address Transfer Type
   7822 97.311081      host                  3.25.2                USB      27     URB_BULK in                                                     25             0x82             0x03

Frame 7822: 27 bytes on wire (216 bits), 27 bytes captured (216 bits) on interface \\.\USBPcap3, id 0
USB URB
    [Source: host]
    [Destination: 3.25.2]
    USBPcap pseudoheader length: 27
    IRP ID: 0xffffe703273d9010
    IRP USBD_STATUS: USBD_STATUS_SUCCESS (0x00000000)
    URB Function: URB_FUNCTION_BULK_OR_INTERRUPT_TRANSFER (0x0009)
    IRP information: 0x00, Direction: FDO -> PDO
        0000 000. = Reserved: 0x00
        .... ...0 = Direction: FDO -> PDO (0x0)
    URB bus id: 3
    Device address: 25
    Endpoint: 0x82, Direction: IN
    URB transfer type: URB_BULK (0x03)
    Packet Data Length: 0
    [Response in: 7823]
    [bInterfaceClass: CDC-Data (0x0a)]

0000  1b 00 10 90 3d 27 03 e7 ff ff 00 00 00 00 09 00   ....='..........
0010  00 03 00 19 00 82 03 00 00 00 00                  ...........

No.     Time           Source                Destination           Protocol Length Info                                                            Device Address Endpoint Address Transfer Type
   7823 97.382559      3.25.2                host                  USBCOM   28     URB_BULK in                                                     25             0x82             0x03

Frame 7823: 28 bytes on wire (224 bits), 28 bytes captured (224 bits) on interface \\.\USBPcap3, id 0
USB URB
    [Source: 3.25.2]
    [Destination: host]
    USBPcap pseudoheader length: 27
    IRP ID: 0xffffe703273d9010
    IRP USBD_STATUS: USBD_STATUS_SUCCESS (0x00000000)
    URB Function: URB_FUNCTION_BULK_OR_INTERRUPT_TRANSFER (0x0009)
    IRP information: 0x01, Direction: PDO -> FDO
        0000 000. = Reserved: 0x00
        .... ...1 = Direction: PDO -> FDO (0x1)
    URB bus id: 3
    Device address: 25
    Endpoint: 0x82, Direction: IN
    URB transfer type: URB_BULK (0x03)
    Packet Data Length: 1
    [Request in: 7822]
    [Time from request: 0.071478000 seconds]
    [bInterfaceClass: CDC-Data (0x0a)]
USB Communications and CDC Control
    [Stream index: 0]
    IN payload: 80

0000  1b 00 10 90 3d 27 03 e7 ff ff 00 00 00 00 09 00   ....='..........
0010  01 03 00 19 00 82 03 01 00 00 00 80               ............

No.     Time           Source                Destination           Protocol Length Info                                                            Device Address Endpoint Address Transfer Type
   7824 97.382659      host                  3.25.2                USB      27     URB_BULK in                                                     25             0x82             0x03

Frame 7824: 27 bytes on wire (216 bits), 27 bytes captured (216 bits) on interface \\.\USBPcap3, id 0
USB URB
    [Source: host]
    [Destination: 3.25.2]
    USBPcap pseudoheader length: 27
    IRP ID: 0xffffe703273d9010
    IRP USBD_STATUS: USBD_STATUS_SUCCESS (0x00000000)
    URB Function: URB_FUNCTION_BULK_OR_INTERRUPT_TRANSFER (0x0009)
    IRP information: 0x00, Direction: FDO -> PDO
        0000 000. = Reserved: 0x00
        .... ...0 = Direction: FDO -> PDO (0x0)
    URB bus id: 3
    Device address: 25
    Endpoint: 0x82, Direction: IN
    URB transfer type: URB_BULK (0x03)
    Packet Data Length: 0
    [Response in: 8495]
    [bInterfaceClass: CDC-Data (0x0a)]

0000  1b 00 10 90 3d 27 03 e7 ff ff 00 00 00 00 09 00   ....='..........
0010  00 03 00 19 00 82 03 00 00 00 00                  ...........

No.     Time           Source                Destination           Protocol Length Info                                                            Device Address Endpoint Address Transfer Type
   8495 113.621496     3.25.2                host                  USBCOM   28     URB_BULK in                                                     25             0x82             0x03

Frame 8495: 28 bytes on wire (224 bits), 28 bytes captured (224 bits) on interface \\.\USBPcap3, id 0
USB URB
    [Source: 3.25.2]
    [Destination: host]
    USBPcap pseudoheader length: 27
    IRP ID: 0xffffe703273d9010
    IRP USBD_STATUS: USBD_STATUS_SUCCESS (0x00000000)
    URB Function: URB_FUNCTION_BULK_OR_INTERRUPT_TRANSFER (0x0009)
    IRP information: 0x01, Direction: PDO -> FDO
        0000 000. = Reserved: 0x00
        .... ...1 = Direction: PDO -> FDO (0x1)
    URB bus id: 3
    Device address: 25
    Endpoint: 0x82, Direction: IN
    URB transfer type: URB_BULK (0x03)
    Packet Data Length: 1
    [Request in: 7824]
    [Time from request: 16.238837000 seconds]
    [bInterfaceClass: CDC-Data (0x0a)]
USB Communications and CDC Control
    [Stream index: 0]
    IN payload: 03

0000  1b 00 10 90 3d 27 03 e7 ff ff 00 00 00 00 09 00   ....='..........
0010  01 03 00 19 00 82 03 01 00 00 00 03               ............

No.     Time           Source                Destination           Protocol Length Info                                                            Device Address Endpoint Address Transfer Type
   8496 113.621610     host                  3.25.2                USB      27     URB_BULK in                                                     25             0x82             0x03

Frame 8496: 27 bytes on wire (216 bits), 27 bytes captured (216 bits) on interface \\.\USBPcap3, id 0
USB URB
    [Source: host]
    [Destination: 3.25.2]
    USBPcap pseudoheader length: 27
    IRP ID: 0xffffe703273d9010
    IRP USBD_STATUS: USBD_STATUS_SUCCESS (0x00000000)
    URB Function: URB_FUNCTION_BULK_OR_INTERRUPT_TRANSFER (0x0009)
    IRP information: 0x00, Direction: FDO -> PDO
        0000 000. = Reserved: 0x00
        .... ...0 = Direction: FDO -> PDO (0x0)
    URB bus id: 3
    Device address: 25
    Endpoint: 0x82, Direction: IN
    URB transfer type: URB_BULK (0x03)
    Packet Data Length: 0
    [Response in: 8497]
    [bInterfaceClass: CDC-Data (0x0a)]

0000  1b 00 10 90 3d 27 03 e7 ff ff 00 00 00 00 09 00   ....='..........
0010  00 03 00 19 00 82 03 00 00 00 00                  ...........

No.     Time           Source                Destination           Protocol Length Info                                                            Device Address Endpoint Address Transfer Type
   8497 113.706158     3.25.2                host                  USBCOM   28     URB_BULK in                                                     25             0x82             0x03

Frame 8497: 28 bytes on wire (224 bits), 28 bytes captured (224 bits) on interface \\.\USBPcap3, id 0
USB URB
    [Source: 3.25.2]
    [Destination: host]
    USBPcap pseudoheader length: 27
    IRP ID: 0xffffe703273d9010
    IRP USBD_STATUS: USBD_STATUS_SUCCESS (0x00000000)
    URB Function: URB_FUNCTION_BULK_OR_INTERRUPT_TRANSFER (0x0009)
    IRP information: 0x01, Direction: PDO -> FDO
        0000 000. = Reserved: 0x00
        .... ...1 = Direction: PDO -> FDO (0x1)
    URB bus id: 3
    Device address: 25
    Endpoint: 0x82, Direction: IN
    URB transfer type: URB_BULK (0x03)
    Packet Data Length: 1
    [Request in: 8496]
    [Time from request: 0.084548000 seconds]
    [bInterfaceClass: CDC-Data (0x0a)]
USB Communications and CDC Control
    [Stream index: 0]
    IN payload: 83

0000  1b 00 10 90 3d 27 03 e7 ff ff 00 00 00 00 09 00   ....='..........
0010  01 03 00 19 00 82 03 01 00 00 00 83               ............

No.     Time           Source                Destination           Protocol Length Info                                                            Device Address Endpoint Address Transfer Type
   8498 113.706258     host                  3.25.2                USB      27     URB_BULK in                                                     25             0x82             0x03

Frame 8498: 27 bytes on wire (216 bits), 27 bytes captured (216 bits) on interface \\.\USBPcap3, id 0
USB URB
    [Source: host]
    [Destination: 3.25.2]
    USBPcap pseudoheader length: 27
    IRP ID: 0xffffe703273d9010
    IRP USBD_STATUS: USBD_STATUS_SUCCESS (0x00000000)
    URB Function: URB_FUNCTION_BULK_OR_INTERRUPT_TRANSFER (0x0009)
    IRP information: 0x00, Direction: FDO -> PDO
        0000 000. = Reserved: 0x00
        .... ...0 = Direction: FDO -> PDO (0x0)
    URB bus id: 3
    Device address: 25
    Endpoint: 0x82, Direction: IN
    URB transfer type: URB_BULK (0x03)
    Packet Data Length: 0
    [Response in: 9007]
    [bInterfaceClass: CDC-Data (0x0a)]

0000  1b 00 10 90 3d 27 03 e7 ff ff 00 00 00 00 09 00   ....='..........
0010  00 03 00 19 00 82 03 00 00 00 00                  ...........

No.     Time           Source                Destination           Protocol Length Info                                                            Device Address Endpoint Address Transfer Type
   9007 132.741513     3.25.2                host                  USBCOM   28     URB_BULK in                                                     25             0x82             0x03

Frame 9007: 28 bytes on wire (224 bits), 28 bytes captured (224 bits) on interface \\.\USBPcap3, id 0
USB URB
    [Source: 3.25.2]
    [Destination: host]
    USBPcap pseudoheader length: 27
    IRP ID: 0xffffe703273d9010
    IRP USBD_STATUS: USBD_STATUS_SUCCESS (0x00000000)
    URB Function: URB_FUNCTION_BULK_OR_INTERRUPT_TRANSFER (0x0009)
    IRP information: 0x01, Direction: PDO -> FDO
        0000 000. = Reserved: 0x00
        .... ...1 = Direction: PDO -> FDO (0x1)
    URB bus id: 3
    Device address: 25
    Endpoint: 0x82, Direction: IN
    URB transfer type: URB_BULK (0x03)
    Packet Data Length: 1
    [Request in: 8498]
    [Time from request: 19.035255000 seconds]
    [bInterfaceClass: CDC-Data (0x0a)]
USB Communications and CDC Control
    [Stream index: 0]
    IN payload: 10

0000  1b 00 10 90 3d 27 03 e7 ff ff 00 00 00 00 09 00   ....='..........
0010  01 03 00 19 00 82 03 01 00 00 00 10               ............

No.     Time           Source                Destination           Protocol Length Info                                                            Device Address Endpoint Address Transfer Type
   9008 132.741613     host                  3.25.2                USB      27     URB_BULK in                                                     25             0x82             0x03

Frame 9008: 27 bytes on wire (216 bits), 27 bytes captured (216 bits) on interface \\.\USBPcap3, id 0
USB URB
    [Source: host]
    [Destination: 3.25.2]
    USBPcap pseudoheader length: 27
    IRP ID: 0xffffe703273d9010
    IRP USBD_STATUS: USBD_STATUS_SUCCESS (0x00000000)
    URB Function: URB_FUNCTION_BULK_OR_INTERRUPT_TRANSFER (0x0009)
    IRP information: 0x00, Direction: FDO -> PDO
        0000 000. = Reserved: 0x00
        .... ...0 = Direction: FDO -> PDO (0x0)
    URB bus id: 3
    Device address: 25
    Endpoint: 0x82, Direction: IN
    URB transfer type: URB_BULK (0x03)
    Packet Data Length: 0
    [Response in: 9009]
    [bInterfaceClass: CDC-Data (0x0a)]

0000  1b 00 10 90 3d 27 03 e7 ff ff 00 00 00 00 09 00   ....='..........
0010  00 03 00 19 00 82 03 00 00 00 00                  ...........

No.     Time           Source                Destination           Protocol Length Info                                                            Device Address Endpoint Address Transfer Type
   9009 132.904463     3.25.2                host                  USBCOM   28     URB_BULK in                                                     25             0x82             0x03

Frame 9009: 28 bytes on wire (224 bits), 28 bytes captured (224 bits) on interface \\.\USBPcap3, id 0
USB URB
    [Source: 3.25.2]
    [Destination: host]
    USBPcap pseudoheader length: 27
    IRP ID: 0xffffe703273d9010
    IRP USBD_STATUS: USBD_STATUS_SUCCESS (0x00000000)
    URB Function: URB_FUNCTION_BULK_OR_INTERRUPT_TRANSFER (0x0009)
    IRP information: 0x01, Direction: PDO -> FDO
        0000 000. = Reserved: 0x00
        .... ...1 = Direction: PDO -> FDO (0x1)
    URB bus id: 3
    Device address: 25
    Endpoint: 0x82, Direction: IN
    URB transfer type: URB_BULK (0x03)
    Packet Data Length: 1
    [Request in: 9008]
    [Time from request: 0.162850000 seconds]
    [bInterfaceClass: CDC-Data (0x0a)]
USB Communications and CDC Control
    [Stream index: 0]
    IN payload: 90

0000  1b 00 10 90 3d 27 03 e7 ff ff 00 00 00 00 09 00   ....='..........
0010  01 03 00 19 00 82 03 01 00 00 00 90               ............

No.     Time           Source                Destination           Protocol Length Info                                                            Device Address Endpoint Address Transfer Type
   9010 132.904514     host                  3.25.2                USB      27     URB_BULK in                                                     25             0x82             0x03

Frame 9010: 27 bytes on wire (216 bits), 27 bytes captured (216 bits) on interface \\.\USBPcap3, id 0
USB URB
    [Source: host]
    [Destination: 3.25.2]
    USBPcap pseudoheader length: 27
    IRP ID: 0xffffe703273d9010
    IRP USBD_STATUS: USBD_STATUS_SUCCESS (0x00000000)
    URB Function: URB_FUNCTION_BULK_OR_INTERRUPT_TRANSFER (0x0009)
    IRP information: 0x00, Direction: FDO -> PDO
        0000 000. = Reserved: 0x00
        .... ...0 = Direction: FDO -> PDO (0x0)
    URB bus id: 3
    Device address: 25
    Endpoint: 0x82, Direction: IN
    URB transfer type: URB_BULK (0x03)
    Packet Data Length: 0
    [Response in: 9503]
    [bInterfaceClass: CDC-Data (0x0a)]

0000  1b 00 10 90 3d 27 03 e7 ff ff 00 00 00 00 09 00   ....='..........
0010  00 03 00 19 00 82 03 00 00 00 00                  ...........

No.     Time           Source                Destination           Protocol Length Info                                                            Device Address Endpoint Address Transfer Type
   9503 149.508070     3.25.2                host                  USBCOM   28     URB_BULK in                                                     25             0x82             0x03

Frame 9503: 28 bytes on wire (224 bits), 28 bytes captured (224 bits) on interface \\.\USBPcap3, id 0
USB URB
    [Source: 3.25.2]
    [Destination: host]
    USBPcap pseudoheader length: 27
    IRP ID: 0xffffe703273d9010
    IRP USBD_STATUS: USBD_STATUS_SUCCESS (0x00000000)
    URB Function: URB_FUNCTION_BULK_OR_INTERRUPT_TRANSFER (0x0009)
    IRP information: 0x01, Direction: PDO -> FDO
        0000 000. = Reserved: 0x00
        .... ...1 = Direction: PDO -> FDO (0x1)
    URB bus id: 3
    Device address: 25
    Endpoint: 0x82, Direction: IN
    URB transfer type: URB_BULK (0x03)
    Packet Data Length: 1
    [Request in: 9010]
    [Time from request: 16.603556000 seconds]
    [bInterfaceClass: CDC-Data (0x0a)]
USB Communications and CDC Control
    [Stream index: 0]
    IN payload: 11

0000  1b 00 10 90 3d 27 03 e7 ff ff 00 00 00 00 09 00   ....='..........
0010  01 03 00 19 00 82 03 01 00 00 00 11               ............

No.     Time           Source                Destination           Protocol Length Info                                                            Device Address Endpoint Address Transfer Type
   9504 149.508155     host                  3.25.2                USB      27     URB_BULK in                                                     25             0x82             0x03

Frame 9504: 27 bytes on wire (216 bits), 27 bytes captured (216 bits) on interface \\.\USBPcap3, id 0
USB URB
    [Source: host]
    [Destination: 3.25.2]
    USBPcap pseudoheader length: 27
    IRP ID: 0xffffe703273d9010
    IRP USBD_STATUS: USBD_STATUS_SUCCESS (0x00000000)
    URB Function: URB_FUNCTION_BULK_OR_INTERRUPT_TRANSFER (0x0009)
    IRP information: 0x00, Direction: FDO -> PDO
        0000 000. = Reserved: 0x00
        .... ...0 = Direction: FDO -> PDO (0x0)
    URB bus id: 3
    Device address: 25
    Endpoint: 0x82, Direction: IN
    URB transfer type: URB_BULK (0x03)
    Packet Data Length: 0
    [Response in: 9505]
    [bInterfaceClass: CDC-Data (0x0a)]

0000  1b 00 10 90 3d 27 03 e7 ff ff 00 00 00 00 09 00   ....='..........
0010  00 03 00 19 00 82 03 00 00 00 00                  ...........

No.     Time           Source                Destination           Protocol Length Info                                                            Device Address Endpoint Address Transfer Type
   9505 149.613965     3.25.2                host                  USBCOM   28     URB_BULK in                                                     25             0x82             0x03

Frame 9505: 28 bytes on wire (224 bits), 28 bytes captured (224 bits) on interface \\.\USBPcap3, id 0
USB URB
    [Source: 3.25.2]
    [Destination: host]
    USBPcap pseudoheader length: 27
    IRP ID: 0xffffe703273d9010
    IRP USBD_STATUS: USBD_STATUS_SUCCESS (0x00000000)
    URB Function: URB_FUNCTION_BULK_OR_INTERRUPT_TRANSFER (0x0009)
    IRP information: 0x01, Direction: PDO -> FDO
        0000 000. = Reserved: 0x00
        .... ...1 = Direction: PDO -> FDO (0x1)
    URB bus id: 3
    Device address: 25
    Endpoint: 0x82, Direction: IN
    URB transfer type: URB_BULK (0x03)
    Packet Data Length: 1
    [Request in: 9504]
    [Time from request: 0.105810000 seconds]
    [bInterfaceClass: CDC-Data (0x0a)]
USB Communications and CDC Control
    [Stream index: 0]
    IN payload: 91

0000  1b 00 10 90 3d 27 03 e7 ff ff 00 00 00 00 09 00   ....='..........
0010  01 03 00 19 00 82 03 01 00 00 00 91               ............

No.     Time           Source                Destination           Protocol Length Info                                                            Device Address Endpoint Address Transfer Type
   9506 149.614067     host                  3.25.2                USB      27     URB_BULK in                                                     25             0x82             0x03

Frame 9506: 27 bytes on wire (216 bits), 27 bytes captured (216 bits) on interface \\.\USBPcap3, id 0
USB URB
    [Source: host]
    [Destination: 3.25.2]
    USBPcap pseudoheader length: 27
    IRP ID: 0xffffe703273d9010
    IRP USBD_STATUS: USBD_STATUS_SUCCESS (0x00000000)
    URB Function: URB_FUNCTION_BULK_OR_INTERRUPT_TRANSFER (0x0009)
    IRP information: 0x00, Direction: FDO -> PDO
        0000 000. = Reserved: 0x00
        .... ...0 = Direction: FDO -> PDO (0x0)
    URB bus id: 3
    Device address: 25
    Endpoint: 0x82, Direction: IN
    URB transfer type: URB_BULK (0x03)
    Packet Data Length: 0
    [Response in: 9993]
    [bInterfaceClass: CDC-Data (0x0a)]

0000  1b 00 10 90 3d 27 03 e7 ff ff 00 00 00 00 09 00   ....='..........
0010  00 03 00 19 00 82 03 00 00 00 00                  ...........

No.     Time           Source                Destination           Protocol Length Info                                                            Device Address Endpoint Address Transfer Type
   9993 159.163817     3.25.2                host                  USBCOM   28     URB_BULK in                                                     25             0x82             0x03

Frame 9993: 28 bytes on wire (224 bits), 28 bytes captured (224 bits) on interface \\.\USBPcap3, id 0
USB URB
    [Source: 3.25.2]
    [Destination: host]
    USBPcap pseudoheader length: 27
    IRP ID: 0xffffe703273d9010
    IRP USBD_STATUS: USBD_STATUS_SUCCESS (0x00000000)
    URB Function: URB_FUNCTION_BULK_OR_INTERRUPT_TRANSFER (0x0009)
    IRP information: 0x01, Direction: PDO -> FDO
        0000 000. = Reserved: 0x00
        .... ...1 = Direction: PDO -> FDO (0x1)
    URB bus id: 3
    Device address: 25
    Endpoint: 0x82, Direction: IN
    URB transfer type: URB_BULK (0x03)
    Packet Data Length: 1
    [Request in: 9506]
    [Time from request: 9.549750000 seconds]
    [bInterfaceClass: CDC-Data (0x0a)]
USB Communications and CDC Control
    [Stream index: 0]
    IN payload: 12

0000  1b 00 10 90 3d 27 03 e7 ff ff 00 00 00 00 09 00   ....='..........
0010  01 03 00 19 00 82 03 01 00 00 00 12               ............

No.     Time           Source                Destination           Protocol Length Info                                                            Device Address Endpoint Address Transfer Type
   9994 159.163884     host                  3.25.2                USB      27     URB_BULK in                                                     25             0x82             0x03

Frame 9994: 27 bytes on wire (216 bits), 27 bytes captured (216 bits) on interface \\.\USBPcap3, id 0
USB URB
    [Source: host]
    [Destination: 3.25.2]
    USBPcap pseudoheader length: 27
    IRP ID: 0xffffe703273d9010
    IRP USBD_STATUS: USBD_STATUS_SUCCESS (0x00000000)
    URB Function: URB_FUNCTION_BULK_OR_INTERRUPT_TRANSFER (0x0009)
    IRP information: 0x00, Direction: FDO -> PDO
        0000 000. = Reserved: 0x00
        .... ...0 = Direction: FDO -> PDO (0x0)
    URB bus id: 3
    Device address: 25
    Endpoint: 0x82, Direction: IN
    URB transfer type: URB_BULK (0x03)
    Packet Data Length: 0
    [Response in: 9995]
    [bInterfaceClass: CDC-Data (0x0a)]

0000  1b 00 10 90 3d 27 03 e7 ff ff 00 00 00 00 09 00   ....='..........
0010  00 03 00 19 00 82 03 00 00 00 00                  ...........

No.     Time           Source                Destination           Protocol Length Info                                                            Device Address Endpoint Address Transfer Type
   9995 159.267795     3.25.2                host                  USBCOM   28     URB_BULK in                                                     25             0x82             0x03

Frame 9995: 28 bytes on wire (224 bits), 28 bytes captured (224 bits) on interface \\.\USBPcap3, id 0
USB URB
    [Source: 3.25.2]
    [Destination: host]
    USBPcap pseudoheader length: 27
    IRP ID: 0xffffe703273d9010
    IRP USBD_STATUS: USBD_STATUS_SUCCESS (0x00000000)
    URB Function: URB_FUNCTION_BULK_OR_INTERRUPT_TRANSFER (0x0009)
    IRP information: 0x01, Direction: PDO -> FDO
        0000 000. = Reserved: 0x00
        .... ...1 = Direction: PDO -> FDO (0x1)
    URB bus id: 3
    Device address: 25
    Endpoint: 0x82, Direction: IN
    URB transfer type: URB_BULK (0x03)
    Packet Data Length: 1
    [Request in: 9994]
    [Time from request: 0.103911000 seconds]
    [bInterfaceClass: CDC-Data (0x0a)]
USB Communications and CDC Control
    [Stream index: 0]
    IN payload: 92

0000  1b 00 10 90 3d 27 03 e7 ff ff 00 00 00 00 09 00   ....='..........
0010  01 03 00 19 00 82 03 01 00 00 00 92               ............

No.     Time           Source                Destination           Protocol Length Info                                                            Device Address Endpoint Address Transfer Type
   9996 159.267898     host                  3.25.2                USB      27     URB_BULK in                                                     25             0x82             0x03

Frame 9996: 27 bytes on wire (216 bits), 27 bytes captured (216 bits) on interface \\.\USBPcap3, id 0
USB URB
    [Source: host]
    [Destination: 3.25.2]
    USBPcap pseudoheader length: 27
    IRP ID: 0xffffe703273d9010
    IRP USBD_STATUS: USBD_STATUS_SUCCESS (0x00000000)
    URB Function: URB_FUNCTION_BULK_OR_INTERRUPT_TRANSFER (0x0009)
    IRP information: 0x00, Direction: FDO -> PDO
        0000 000. = Reserved: 0x00
        .... ...0 = Direction: FDO -> PDO (0x0)
    URB bus id: 3
    Device address: 25
    Endpoint: 0x82, Direction: IN
    URB transfer type: URB_BULK (0x03)
    Packet Data Length: 0
    [Response in: 10699]
    [bInterfaceClass: CDC-Data (0x0a)]

0000  1b 00 10 90 3d 27 03 e7 ff ff 00 00 00 00 09 00   ....='..........
0010  00 03 00 19 00 82 03 00 00 00 00                  ...........

No.     Time           Source                Destination           Protocol Length Info                                                            Device Address Endpoint Address Transfer Type
  10699 171.654936     3.25.2                host                  USBCOM   28     URB_BULK in                                                     25             0x82             0x03

Frame 10699: 28 bytes on wire (224 bits), 28 bytes captured (224 bits) on interface \\.\USBPcap3, id 0
USB URB
    [Source: 3.25.2]
    [Destination: host]
    USBPcap pseudoheader length: 27
    IRP ID: 0xffffe703273d9010
    IRP USBD_STATUS: USBD_STATUS_SUCCESS (0x00000000)
    URB Function: URB_FUNCTION_BULK_OR_INTERRUPT_TRANSFER (0x0009)
    IRP information: 0x01, Direction: PDO -> FDO
        0000 000. = Reserved: 0x00
        .... ...1 = Direction: PDO -> FDO (0x1)
    URB bus id: 3
    Device address: 25
    Endpoint: 0x82, Direction: IN
    URB transfer type: URB_BULK (0x03)
    Packet Data Length: 1
    [Request in: 9996]
    [Time from request: 12.387038000 seconds]
    [bInterfaceClass: CDC-Data (0x0a)]
USB Communications and CDC Control
    [Stream index: 0]
    IN payload: 13

0000  1b 00 10 90 3d 27 03 e7 ff ff 00 00 00 00 09 00   ....='..........
0010  01 03 00 19 00 82 03 01 00 00 00 13               ............

No.     Time           Source                Destination           Protocol Length Info                                                            Device Address Endpoint Address Transfer Type
  10700 171.655037     host                  3.25.2                USB      27     URB_BULK in                                                     25             0x82             0x03

Frame 10700: 27 bytes on wire (216 bits), 27 bytes captured (216 bits) on interface \\.\USBPcap3, id 0
USB URB
    [Source: host]
    [Destination: 3.25.2]
    USBPcap pseudoheader length: 27
    IRP ID: 0xffffe703273d9010
    IRP USBD_STATUS: USBD_STATUS_SUCCESS (0x00000000)
    URB Function: URB_FUNCTION_BULK_OR_INTERRUPT_TRANSFER (0x0009)
    IRP information: 0x00, Direction: FDO -> PDO
        0000 000. = Reserved: 0x00
        .... ...0 = Direction: FDO -> PDO (0x0)
    URB bus id: 3
    Device address: 25
    Endpoint: 0x82, Direction: IN
    URB transfer type: URB_BULK (0x03)
    Packet Data Length: 0
    [Response in: 10701]
    [bInterfaceClass: CDC-Data (0x0a)]

0000  1b 00 10 90 3d 27 03 e7 ff ff 00 00 00 00 09 00   ....='..........
0010  00 03 00 19 00 82 03 00 00 00 00                  ...........

No.     Time           Source                Destination           Protocol Length Info                                                            Device Address Endpoint Address Transfer Type
  10701 171.759613     3.25.2                host                  USBCOM   28     URB_BULK in                                                     25             0x82             0x03

Frame 10701: 28 bytes on wire (224 bits), 28 bytes captured (224 bits) on interface \\.\USBPcap3, id 0
USB URB
    [Source: 3.25.2]
    [Destination: host]
    USBPcap pseudoheader length: 27
    IRP ID: 0xffffe703273d9010
    IRP USBD_STATUS: USBD_STATUS_SUCCESS (0x00000000)
    URB Function: URB_FUNCTION_BULK_OR_INTERRUPT_TRANSFER (0x0009)
    IRP information: 0x01, Direction: PDO -> FDO
        0000 000. = Reserved: 0x00
        .... ...1 = Direction: PDO -> FDO (0x1)
    URB bus id: 3
    Device address: 25
    Endpoint: 0x82, Direction: IN
    URB transfer type: URB_BULK (0x03)
    Packet Data Length: 1
    [Request in: 10700]
    [Time from request: 0.104576000 seconds]
    [bInterfaceClass: CDC-Data (0x0a)]
USB Communications and CDC Control
    [Stream index: 0]
    IN payload: 93

0000  1b 00 10 90 3d 27 03 e7 ff ff 00 00 00 00 09 00   ....='..........
0010  01 03 00 19 00 82 03 01 00 00 00 93               ............

No.     Time           Source                Destination           Protocol Length Info                                                            Device Address Endpoint Address Transfer Type
  10702 171.759815     host                  3.25.2                USB      27     URB_BULK in                                                     25             0x82             0x03

Frame 10702: 27 bytes on wire (216 bits), 27 bytes captured (216 bits) on interface \\.\USBPcap3, id 0
USB URB
    [Source: host]
    [Destination: 3.25.2]
    USBPcap pseudoheader length: 27
    IRP ID: 0xffffe703273d9010
    IRP USBD_STATUS: USBD_STATUS_SUCCESS (0x00000000)
    URB Function: URB_FUNCTION_BULK_OR_INTERRUPT_TRANSFER (0x0009)
    IRP information: 0x00, Direction: FDO -> PDO
        0000 000. = Reserved: 0x00
        .... ...0 = Direction: FDO -> PDO (0x0)
    URB bus id: 3
    Device address: 25
    Endpoint: 0x82, Direction: IN
    URB transfer type: URB_BULK (0x03)
    Packet Data Length: 0
    [Response in: 10893]
    [bInterfaceClass: CDC-Data (0x0a)]

0000  1b 00 10 90 3d 27 03 e7 ff ff 00 00 00 00 09 00   ....='..........
0010  00 03 00 19 00 82 03 00 00 00 00                  ...........

No.     Time           Source                Destination           Protocol Length Info                                                            Device Address Endpoint Address Transfer Type
  10893 205.212630     3.25.2                host                  USBCOM   28     URB_BULK in                                                     25             0x82             0x03

Frame 10893: 28 bytes on wire (224 bits), 28 bytes captured (224 bits) on interface \\.\USBPcap3, id 0
USB URB
    [Source: 3.25.2]
    [Destination: host]
    USBPcap pseudoheader length: 27
    IRP ID: 0xffffe703273d9010
    IRP USBD_STATUS: USBD_STATUS_SUCCESS (0x00000000)
    URB Function: URB_FUNCTION_BULK_OR_INTERRUPT_TRANSFER (0x0009)
    IRP information: 0x01, Direction: PDO -> FDO
        0000 000. = Reserved: 0x00
        .... ...1 = Direction: PDO -> FDO (0x1)
    URB bus id: 3
    Device address: 25
    Endpoint: 0x82, Direction: IN
    URB transfer type: URB_BULK (0x03)
    Packet Data Length: 1
    [Request in: 10702]
    [Time from request: 33.452815000 seconds]
    [bInterfaceClass: CDC-Data (0x0a)]
USB Communications and CDC Control
    [Stream index: 0]
    IN payload: 37

0000  1b 00 10 90 3d 27 03 e7 ff ff 00 00 00 00 09 00   ....='..........
0010  01 03 00 19 00 82 03 01 00 00 00 37               ...........7

No.     Time           Source                Destination           Protocol Length Info                                                            Device Address Endpoint Address Transfer Type
  10894 205.212732     host                  3.25.2                USB      27     URB_BULK in                                                     25             0x82             0x03

Frame 10894: 27 bytes on wire (216 bits), 27 bytes captured (216 bits) on interface \\.\USBPcap3, id 0
USB URB
    [Source: host]
    [Destination: 3.25.2]
    USBPcap pseudoheader length: 27
    IRP ID: 0xffffe703273d9010
    IRP USBD_STATUS: USBD_STATUS_SUCCESS (0x00000000)
    URB Function: URB_FUNCTION_BULK_OR_INTERRUPT_TRANSFER (0x0009)
    IRP information: 0x00, Direction: FDO -> PDO
        0000 000. = Reserved: 0x00
        .... ...0 = Direction: FDO -> PDO (0x0)
    URB bus id: 3
    Device address: 25
    Endpoint: 0x82, Direction: IN
    URB transfer type: URB_BULK (0x03)
    Packet Data Length: 0
    [Response in: 10895]
    [bInterfaceClass: CDC-Data (0x0a)]

0000  1b 00 10 90 3d 27 03 e7 ff ff 00 00 00 00 09 00   ....='..........
0010  00 03 00 19 00 82 03 00 00 00 00                  ...........

No.     Time           Source                Destination           Protocol Length Info                                                            Device Address Endpoint Address Transfer Type
  10895 205.353035     3.25.2                host                  USBCOM   28     URB_BULK in                                                     25             0x82             0x03

Frame 10895: 28 bytes on wire (224 bits), 28 bytes captured (224 bits) on interface \\.\USBPcap3, id 0
USB URB
    [Source: 3.25.2]
    [Destination: host]
    USBPcap pseudoheader length: 27
    IRP ID: 0xffffe703273d9010
    IRP USBD_STATUS: USBD_STATUS_SUCCESS (0x00000000)
    URB Function: URB_FUNCTION_BULK_OR_INTERRUPT_TRANSFER (0x0009)
    IRP information: 0x01, Direction: PDO -> FDO
        0000 000. = Reserved: 0x00
        .... ...1 = Direction: PDO -> FDO (0x1)
    URB bus id: 3
    Device address: 25
    Endpoint: 0x82, Direction: IN
    URB transfer type: URB_BULK (0x03)
    Packet Data Length: 1
    [Request in: 10894]
    [Time from request: 0.140303000 seconds]
    [bInterfaceClass: CDC-Data (0x0a)]
USB Communications and CDC Control
    [Stream index: 0]
    IN payload: b7

0000  1b 00 10 90 3d 27 03 e7 ff ff 00 00 00 00 09 00   ....='..........
0010  01 03 00 19 00 82 03 01 00 00 00 b7               ............

No.     Time           Source                Destination           Protocol Length Info                                                            Device Address Endpoint Address Transfer Type
  10896 205.353175     host                  3.25.2                USB      27     URB_BULK in                                                     25             0x82             0x03

Frame 10896: 27 bytes on wire (216 bits), 27 bytes captured (216 bits) on interface \\.\USBPcap3, id 0
USB URB
    [Source: host]
    [Destination: 3.25.2]
    USBPcap pseudoheader length: 27
    IRP ID: 0xffffe703273d9010
    IRP USBD_STATUS: USBD_STATUS_SUCCESS (0x00000000)
    URB Function: URB_FUNCTION_BULK_OR_INTERRUPT_TRANSFER (0x0009)
    IRP information: 0x00, Direction: FDO -> PDO
        0000 000. = Reserved: 0x00
        .... ...0 = Direction: FDO -> PDO (0x0)
    URB bus id: 3
    Device address: 25
    Endpoint: 0x82, Direction: IN
    URB transfer type: URB_BULK (0x03)
    Packet Data Length: 0
    [Response in: 10991]
    [bInterfaceClass: CDC-Data (0x0a)]

0000  1b 00 10 90 3d 27 03 e7 ff ff 00 00 00 00 09 00   ....='..........
0010  00 03 00 19 00 82 03 00 00 00 00                  ...........

No.     Time           Source                Destination           Protocol Length Info                                                            Device Address Endpoint Address Transfer Type
  10991 209.127329     3.25.2                host                  USBCOM   28     URB_BULK in                                                     25             0x82             0x03

Frame 10991: 28 bytes on wire (224 bits), 28 bytes captured (224 bits) on interface \\.\USBPcap3, id 0
USB URB
    [Source: 3.25.2]
    [Destination: host]
    USBPcap pseudoheader length: 27
    IRP ID: 0xffffe703273d9010
    IRP USBD_STATUS: USBD_STATUS_SUCCESS (0x00000000)
    URB Function: URB_FUNCTION_BULK_OR_INTERRUPT_TRANSFER (0x0009)
    IRP information: 0x01, Direction: PDO -> FDO
        0000 000. = Reserved: 0x00
        .... ...1 = Direction: PDO -> FDO (0x1)
    URB bus id: 3
    Device address: 25
    Endpoint: 0x82, Direction: IN
    URB transfer type: URB_BULK (0x03)
    Packet Data Length: 1
    [Request in: 10896]
    [Time from request: 3.774154000 seconds]
    [bInterfaceClass: CDC-Data (0x0a)]
USB Communications and CDC Control
    [Stream index: 0]
    IN payload: 44

0000  1b 00 10 90 3d 27 03 e7 ff ff 00 00 00 00 09 00   ....='..........
0010  01 03 00 19 00 82 03 01 00 00 00 44               ...........D

No.     Time           Source                Destination           Protocol Length Info                                                            Device Address Endpoint Address Transfer Type
  10992 209.127431     host                  3.25.2                USB      27     URB_BULK in                                                     25             0x82             0x03

Frame 10992: 27 bytes on wire (216 bits), 27 bytes captured (216 bits) on interface \\.\USBPcap3, id 0
USB URB
    [Source: host]
    [Destination: 3.25.2]
    USBPcap pseudoheader length: 27
    IRP ID: 0xffffe703273d9010
    IRP USBD_STATUS: USBD_STATUS_SUCCESS (0x00000000)
    URB Function: URB_FUNCTION_BULK_OR_INTERRUPT_TRANSFER (0x0009)
    IRP information: 0x00, Direction: FDO -> PDO
        0000 000. = Reserved: 0x00
        .... ...0 = Direction: FDO -> PDO (0x0)
    URB bus id: 3
    Device address: 25
    Endpoint: 0x82, Direction: IN
    URB transfer type: URB_BULK (0x03)
    Packet Data Length: 0
    [Response in: 10993]
    [bInterfaceClass: CDC-Data (0x0a)]

0000  1b 00 10 90 3d 27 03 e7 ff ff 00 00 00 00 09 00   ....='..........
0010  00 03 00 19 00 82 03 00 00 00 00                  ...........

No.     Time           Source                Destination           Protocol Length Info                                                            Device Address Endpoint Address Transfer Type
  10993 209.250092     3.25.2                host                  USBCOM   28     URB_BULK in                                                     25             0x82             0x03

Frame 10993: 28 bytes on wire (224 bits), 28 bytes captured (224 bits) on interface \\.\USBPcap3, id 0
USB URB
    [Source: 3.25.2]
    [Destination: host]
    USBPcap pseudoheader length: 27
    IRP ID: 0xffffe703273d9010
    IRP USBD_STATUS: USBD_STATUS_SUCCESS (0x00000000)
    URB Function: URB_FUNCTION_BULK_OR_INTERRUPT_TRANSFER (0x0009)
    IRP information: 0x01, Direction: PDO -> FDO
        0000 000. = Reserved: 0x00
        .... ...1 = Direction: PDO -> FDO (0x1)
    URB bus id: 3
    Device address: 25
    Endpoint: 0x82, Direction: IN
    URB transfer type: URB_BULK (0x03)
    Packet Data Length: 1
    [Request in: 10992]
    [Time from request: 0.122661000 seconds]
    [bInterfaceClass: CDC-Data (0x0a)]
USB Communications and CDC Control
    [Stream index: 0]
    IN payload: 37

0000  1b 00 10 90 3d 27 03 e7 ff ff 00 00 00 00 09 00   ....='..........
0010  01 03 00 19 00 82 03 01 00 00 00 37               ...........7

No.     Time           Source                Destination           Protocol Length Info                                                            Device Address Endpoint Address Transfer Type
  10994 209.250229     host                  3.25.2                USB      27     URB_BULK in                                                     25             0x82             0x03

Frame 10994: 27 bytes on wire (216 bits), 27 bytes captured (216 bits) on interface \\.\USBPcap3, id 0
USB URB
    [Source: host]
    [Destination: 3.25.2]
    USBPcap pseudoheader length: 27
    IRP ID: 0xffffe703273d9010
    IRP USBD_STATUS: USBD_STATUS_SUCCESS (0x00000000)
    URB Function: URB_FUNCTION_BULK_OR_INTERRUPT_TRANSFER (0x0009)
    IRP information: 0x00, Direction: FDO -> PDO
        0000 000. = Reserved: 0x00
        .... ...0 = Direction: FDO -> PDO (0x0)
    URB bus id: 3
    Device address: 25
    Endpoint: 0x82, Direction: IN
    URB transfer type: URB_BULK (0x03)
    Packet Data Length: 0
    [Response in: 10995]
    [bInterfaceClass: CDC-Data (0x0a)]

0000  1b 00 10 90 3d 27 03 e7 ff ff 00 00 00 00 09 00   ....='..........
0010  00 03 00 19 00 82 03 00 00 00 00                  ...........

No.     Time           Source                Destination           Protocol Length Info                                                            Device Address Endpoint Address Transfer Type
  10995 209.373734     3.25.2                host                  USBCOM   28     URB_BULK in                                                     25             0x82             0x03

Frame 10995: 28 bytes on wire (224 bits), 28 bytes captured (224 bits) on interface \\.\USBPcap3, id 0
USB URB
    [Source: 3.25.2]
    [Destination: host]
    USBPcap pseudoheader length: 27
    IRP ID: 0xffffe703273d9010
    IRP USBD_STATUS: USBD_STATUS_SUCCESS (0x00000000)
    URB Function: URB_FUNCTION_BULK_OR_INTERRUPT_TRANSFER (0x0009)
    IRP information: 0x01, Direction: PDO -> FDO
        0000 000. = Reserved: 0x00
        .... ...1 = Direction: PDO -> FDO (0x1)
    URB bus id: 3
    Device address: 25
    Endpoint: 0x82, Direction: IN
    URB transfer type: URB_BULK (0x03)
    Packet Data Length: 1
    [Request in: 10994]
    [Time from request: 0.123505000 seconds]
    [bInterfaceClass: CDC-Data (0x0a)]
USB Communications and CDC Control
    [Stream index: 0]
    IN payload: b7

0000  1b 00 10 90 3d 27 03 e7 ff ff 00 00 00 00 09 00   ....='..........
0010  01 03 00 19 00 82 03 01 00 00 00 b7               ............

No.     Time           Source                Destination           Protocol Length Info                                                            Device Address Endpoint Address Transfer Type
  10996 209.373788     host                  3.25.2                USB      27     URB_BULK in                                                     25             0x82             0x03

Frame 10996: 27 bytes on wire (216 bits), 27 bytes captured (216 bits) on interface \\.\USBPcap3, id 0
USB URB
    [Source: host]
    [Destination: 3.25.2]
    USBPcap pseudoheader length: 27
    IRP ID: 0xffffe703273d9010
    IRP USBD_STATUS: USBD_STATUS_SUCCESS (0x00000000)
    URB Function: URB_FUNCTION_BULK_OR_INTERRUPT_TRANSFER (0x0009)
    IRP information: 0x00, Direction: FDO -> PDO
        0000 000. = Reserved: 0x00
        .... ...0 = Direction: FDO -> PDO (0x0)
    URB bus id: 3
    Device address: 25
    Endpoint: 0x82, Direction: IN
    URB transfer type: URB_BULK (0x03)
    Packet Data Length: 0
    [Response in: 11131]
    [bInterfaceClass: CDC-Data (0x0a)]

0000  1b 00 10 90 3d 27 03 e7 ff ff 00 00 00 00 09 00   ....='..........
0010  00 03 00 19 00 82 03 00 00 00 00                  ...........

No.     Time           Source                Destination           Protocol Length Info                                                            Device Address Endpoint Address Transfer Type
  11131 214.083284     3.25.2                host                  USBCOM   28     URB_BULK in                                                     25             0x82             0x03

Frame 11131: 28 bytes on wire (224 bits), 28 bytes captured (224 bits) on interface \\.\USBPcap3, id 0
USB URB
    [Source: 3.25.2]
    [Destination: host]
    USBPcap pseudoheader length: 27
    IRP ID: 0xffffe703273d9010
    IRP USBD_STATUS: USBD_STATUS_SUCCESS (0x00000000)
    URB Function: URB_FUNCTION_BULK_OR_INTERRUPT_TRANSFER (0x0009)
    IRP information: 0x01, Direction: PDO -> FDO
        0000 000. = Reserved: 0x00
        .... ...1 = Direction: PDO -> FDO (0x1)
    URB bus id: 3
    Device address: 25
    Endpoint: 0x82, Direction: IN
    URB transfer type: URB_BULK (0x03)
    Packet Data Length: 1
    [Request in: 10996]
    [Time from request: 4.709496000 seconds]
    [bInterfaceClass: CDC-Data (0x0a)]
USB Communications and CDC Control
    [Stream index: 0]
    IN payload: 44

0000  1b 00 10 90 3d 27 03 e7 ff ff 00 00 00 00 09 00   ....='..........
